{"abi":[{"type":"constructor","inputs":[],"stateMutability":"nonpayable"},{"type":"receive","stateMutability":"payable"},{"type":"function","name":"ADMIN_ROLE","inputs":[],"outputs":[{"name":"","type":"bytes32","internalType":"bytes32"}],"stateMutability":"view"},{"type":"function","name":"CHAIN_ID","inputs":[],"outputs":[{"name":"","type":"uint256","internalType":"uint256"}],"stateMutability":"view"},{"type":"function","name":"DEFAULT_ADMIN_ROLE","inputs":[],"outputs":[{"name":"","type":"bytes32","internalType":"bytes32"}],"stateMutability":"view"},{"type":"function","name":"EPSILON","inputs":[],"outputs":[{"name":"","type":"uint256","internalType":"uint256"}],"stateMutability":"view"},{"type":"function","name":"GLOBAL_MAX_TOKENS","inputs":[],"outputs":[{"name":"","type":"uint256","internalType":"uint256"}],"stateMutability":"view"},{"type":"function","name":"GLOBAL_REFILL_RATE","inputs":[],"outputs":[{"name":"","type":"uint256","internalType":"uint256"}],"stateMutability":"view"},{"type":"function","name":"MAX_AMOUNT","inputs":[],"outputs":[{"name":"","type":"uint256","internalType":"uint256"}],"stateMutability":"view"},{"type":"function","name":"MAX_BATCH_SIZE","inputs":[],"outputs":[{"name":"","type":"uint256","internalType":"uint256"}],"stateMutability":"view"},{"type":"function","name":"MAX_PRIVACY_BUDGET","inputs":[],"outputs":[{"name":"","type":"uint256","internalType":"uint256"}],"stateMutability":"view"},{"type":"function","name":"MAX_STRING_LENGTH","inputs":[],"outputs":[{"name":"","type":"uint256","internalType":"uint256"}],"stateMutability":"view"},{"type":"function","name":"MAX_TOKENS","inputs":[],"outputs":[{"name":"","type":"uint256","internalType":"uint256"}],"stateMutability":"view"},{"type":"function","name":"MINTER_ROLE","inputs":[],"outputs":[{"name":"","type":"bytes32","internalType":"bytes32"}],"stateMutability":"view"},{"type":"function","name":"MIN_AMOUNT","inputs":[],"outputs":[{"name":"","type":"uint256","internalType":"uint256"}],"stateMutability":"view"},{"type":"function","name":"MIN_BATCH_SIZE","inputs":[],"outputs":[{"name":"","type":"uint256","internalType":"uint256"}],"stateMutability":"view"},{"type":"function","name":"PAUSER_ROLE","inputs":[],"outputs":[{"name":"","type":"bytes32","internalType":"bytes32"}],"stateMutability":"view"},{"type":"function","name":"REFILL_RATE","inputs":[],"outputs":[{"name":"","type":"uint256","internalType":"uint256"}],"stateMutability":"view"},{"type":"function","name":"SENSITIVITY","inputs":[],"outputs":[{"name":"","type":"uint256","internalType":"uint256"}],"stateMutability":"view"},{"type":"function","name":"TIME_UNIT","inputs":[],"outputs":[{"name":"","type":"uint256","internalType":"uint256"}],"stateMutability":"view"},{"type":"function","name":"UPGRADER_ROLE","inputs":[],"outputs":[{"name":"","type":"bytes32","internalType":"bytes32"}],"stateMutability":"view"},{"type":"function","name":"addEmergencyPauser","inputs":[{"name":"account","type":"address","internalType":"address"}],"outputs":[],"stateMutability":"nonpayable"},{"type":"function","name":"allowance","inputs":[{"name":"owner","type":"address","internalType":"address"},{"name":"spender","type":"address","internalType":"address"}],"outputs":[{"name":"","type":"uint256","internalType":"uint256"}],"stateMutability":"view"},{"type":"function","name":"approve","inputs":[{"name":"spender","type":"address","internalType":"address"},{"name":"amount","type":"uint256","internalType":"uint256"}],"outputs":[{"name":"","type":"bool","internalType":"bool"}],"stateMutability":"nonpayable"},{"type":"function","name":"approveWithNonce","inputs":[{"name":"spender","type":"address","internalType":"address"},{"name":"amount","type":"uint256","internalType":"uint256"},{"name":"nonce","type":"uint256","internalType":"uint256"},{"name":"signature","type":"bytes","internalType":"bytes"}],"outputs":[{"name":"","type":"bool","internalType":"bool"}],"stateMutability":"nonpayable"},{"type":"function","name":"balanceOf","inputs":[{"name":"account","type":"address","internalType":"address"}],"outputs":[{"name":"","type":"uint256","internalType":"uint256"}],"stateMutability":"view"},{"type":"function","name":"batchTransfer","inputs":[{"name":"recipients","type":"address[]","internalType":"address[]"},{"name":"amounts","type":"uint256[]","internalType":"uint256[]"}],"outputs":[{"name":"","type":"bool","internalType":"bool"}],"stateMutability":"nonpayable"},{"type":"function","name":"burn","inputs":[{"name":"amount","type":"uint256","internalType":"uint256"}],"outputs":[],"stateMutability":"nonpayable"},{"type":"function","name":"decimals","inputs":[],"outputs":[{"name":"","type":"uint8","internalType":"uint8"}],"stateMutability":"view"},{"type":"function","name":"emergencyPause","inputs":[{"name":"reason","type":"string","internalType":"string"}],"outputs":[],"stateMutability":"nonpayable"},{"type":"function","name":"emergencyWithdraw","inputs":[{"name":"to","type":"address","internalType":"address"},{"name":"amount","type":"uint256","internalType":"uint256"}],"outputs":[],"stateMutability":"nonpayable"},{"type":"function","name":"getConfidenceInterval","inputs":[{"name":"epsilon","type":"uint256","internalType":"uint256"},{"name":"sensitivity","type":"uint256","internalType":"uint256"}],"outputs":[{"name":"margin","type":"uint256","internalType":"uint256"}],"stateMutability":"pure"},{"type":"function","name":"getGlobalRateLimitStatus","inputs":[],"outputs":[{"name":"availableTokens","type":"uint256","internalType":"uint256"},{"name":"nextRefillTime","type":"uint256","internalType":"uint256"}],"stateMutability":"view"},{"type":"function","name":"getNonce","inputs":[{"name":"user","type":"address","internalType":"address"}],"outputs":[{"name":"","type":"uint256","internalType":"uint256"}],"stateMutability":"view"},{"type":"function","name":"getPauseInfo","inputs":[],"outputs":[{"name":"isPaused","type":"bool","internalType":"bool"},{"name":"pauseCount","type":"uint256","internalType":"uint256"},{"name":"lastPauseTime","type":"uint256","internalType":"uint256"},{"name":"reason","type":"string","internalType":"string"}],"stateMutability":"view"},{"type":"function","name":"getPrivateTransactionCount","inputs":[],"outputs":[{"name":"","type":"uint256","internalType":"uint256"}],"stateMutability":"view"},{"type":"function","name":"getPrivateUserCount","inputs":[],"outputs":[{"name":"","type":"uint256","internalType":"uint256"}],"stateMutability":"view"},{"type":"function","name":"getRateLimitStatus","inputs":[{"name":"user","type":"address","internalType":"address"}],"outputs":[{"name":"availableTokens","type":"uint256","internalType":"uint256"},{"name":"totalRequests","type":"uint256","internalType":"uint256"},{"name":"nextRefillTime","type":"uint256","internalType":"uint256"}],"stateMutability":"view"},{"type":"function","name":"getRemainingPrivacyBudget","inputs":[{"name":"user","type":"address","internalType":"address"}],"outputs":[{"name":"","type":"uint256","internalType":"uint256"}],"stateMutability":"view"},{"type":"function","name":"getRoleAdmin","inputs":[{"name":"role","type":"bytes32","internalType":"bytes32"}],"outputs":[{"name":"","type":"bytes32","internalType":"bytes32"}],"stateMutability":"view"},{"type":"function","name":"getTrueTransactionCount","inputs":[],"outputs":[{"name":"","type":"uint256","internalType":"uint256"}],"stateMutability":"view"},{"type":"function","name":"grantRole","inputs":[{"name":"role","type":"bytes32","internalType":"bytes32"},{"name":"account","type":"address","internalType":"address"}],"outputs":[],"stateMutability":"nonpayable"},{"type":"function","name":"hasRole","inputs":[{"name":"role","type":"bytes32","internalType":"bytes32"},{"name":"account","type":"address","internalType":"address"}],"outputs":[{"name":"","type":"bool","internalType":"bool"}],"stateMutability":"view"},{"type":"function","name":"isEmergencyPauser","inputs":[{"name":"account","type":"address","internalType":"address"}],"outputs":[{"name":"","type":"bool","internalType":"bool"}],"stateMutability":"view"},{"type":"function","name":"isNonceUsed","inputs":[{"name":"user","type":"address","internalType":"address"},{"name":"nonce","type":"uint256","internalType":"uint256"}],"outputs":[{"name":"","type":"bool","internalType":"bool"}],"stateMutability":"view"},{"type":"function","name":"mint","inputs":[{"name":"to","type":"address","internalType":"address"},{"name":"amount","type":"uint256","internalType":"uint256"}],"outputs":[],"stateMutability":"nonpayable"},{"type":"function","name":"name","inputs":[],"outputs":[{"name":"","type":"string","internalType":"string"}],"stateMutability":"view"},{"type":"function","name":"nonces","inputs":[{"name":"","type":"address","internalType":"address"}],"outputs":[{"name":"","type":"uint256","internalType":"uint256"}],"stateMutability":"view"},{"type":"function","name":"pause","inputs":[],"outputs":[],"stateMutability":"nonpayable"},{"type":"function","name":"pauseWithReason","inputs":[{"name":"reason","type":"string","internalType":"string"}],"outputs":[],"stateMutability":"nonpayable"},{"type":"function","name":"paused","inputs":[],"outputs":[{"name":"","type":"bool","internalType":"bool"}],"stateMutability":"view"},{"type":"function","name":"removeEmergencyPauser","inputs":[{"name":"account","type":"address","internalType":"address"}],"outputs":[],"stateMutability":"nonpayable"},{"type":"function","name":"renounceRole","inputs":[{"name":"role","type":"bytes32","internalType":"bytes32"},{"name":"account","type":"address","internalType":"address"}],"outputs":[],"stateMutability":"nonpayable"},{"type":"function","name":"revokeRole","inputs":[{"name":"role","type":"bytes32","internalType":"bytes32"},{"name":"account","type":"address","internalType":"address"}],"outputs":[],"stateMutability":"nonpayable"},{"type":"function","name":"symbol","inputs":[],"outputs":[{"name":"","type":"string","internalType":"string"}],"stateMutability":"view"},{"type":"function","name":"totalSupply","inputs":[],"outputs":[{"name":"","type":"uint256","internalType":"uint256"}],"stateMutability":"view"},{"type":"function","name":"transfer","inputs":[{"name":"to","type":"address","internalType":"address"},{"name":"amount","type":"uint256","internalType":"uint256"}],"outputs":[{"name":"","type":"bool","internalType":"bool"}],"stateMutability":"nonpayable"},{"type":"function","name":"transferFrom","inputs":[{"name":"from","type":"address","internalType":"address"},{"name":"to","type":"address","internalType":"address"},{"name":"amount","type":"uint256","internalType":"uint256"}],"outputs":[{"name":"","type":"bool","internalType":"bool"}],"stateMutability":"nonpayable"},{"type":"function","name":"unpause","inputs":[],"outputs":[],"stateMutability":"nonpayable"},{"type":"function","name":"usedNonces","inputs":[{"name":"","type":"address","internalType":"address"},{"name":"","type":"uint256","internalType":"uint256"}],"outputs":[{"name":"","type":"bool","internalType":"bool"}],"stateMutability":"view"},{"type":"function","name":"wouldBeRateLimited","inputs":[{"name":"user","type":"address","internalType":"address"}],"outputs":[{"name":"","type":"bool","internalType":"bool"}],"stateMutability":"view"},{"type":"event","name":"Approval","inputs":[{"name":"owner","type":"address","indexed":true,"internalType":"address"},{"name":"spender","type":"address","indexed":true,"internalType":"address"},{"name":"value","type":"uint256","indexed":false,"internalType":"uint256"}],"anonymous":false},{"type":"event","name":"BatchTransfer","inputs":[{"name":"from","type":"address","indexed":true,"internalType":"address"},{"name":"recipientCount","type":"uint256","indexed":false,"internalType":"uint256"},{"name":"totalAmount","type":"uint256","indexed":false,"internalType":"uint256"}],"anonymous":false},{"type":"event","name":"Burn","inputs":[{"name":"from","type":"address","indexed":true,"internalType":"address"},{"name":"amount","type":"uint256","indexed":false,"internalType":"uint256"}],"anonymous":false},{"type":"event","name":"EmergencyPause","inputs":[{"name":"account","type":"address","indexed":true,"internalType":"address"},{"name":"reason","type":"string","indexed":false,"internalType":"string"}],"anonymous":false},{"type":"event","name":"Mint","inputs":[{"name":"to","type":"address","indexed":true,"internalType":"address"},{"name":"amount","type":"uint256","indexed":false,"internalType":"uint256"}],"anonymous":false},{"type":"event","name":"NoiseAdded","inputs":[{"name":"queryType","type":"string","indexed":false,"internalType":"string"},{"name":"trueValue","type":"int256","indexed":false,"internalType":"int256"},{"name":"noisyValue","type":"int256","indexed":false,"internalType":"int256"}],"anonymous":false},{"type":"event","name":"NonceUsed","inputs":[{"name":"user","type":"address","indexed":true,"internalType":"address"},{"name":"nonce","type":"uint256","indexed":false,"internalType":"uint256"}],"anonymous":false},{"type":"event","name":"Paused","inputs":[{"name":"account","type":"address","indexed":true,"internalType":"address"}],"anonymous":false},{"type":"event","name":"PrivacyBudgetUsed","inputs":[{"name":"user","type":"address","indexed":true,"internalType":"address"},{"name":"budget","type":"uint256","indexed":false,"internalType":"uint256"}],"anonymous":false},{"type":"event","name":"RateLimitExceeded","inputs":[{"name":"user","type":"address","indexed":true,"internalType":"address"},{"name":"timestamp","type":"uint256","indexed":false,"internalType":"uint256"}],"anonymous":false},{"type":"event","name":"RateLimitReset","inputs":[{"name":"user","type":"address","indexed":true,"internalType":"address"}],"anonymous":false},{"type":"event","name":"RoleAdminChanged","inputs":[{"name":"role","type":"bytes32","indexed":true,"internalType":"bytes32"},{"name":"previousAdminRole","type":"bytes32","indexed":true,"internalType":"bytes32"},{"name":"newAdminRole","type":"bytes32","indexed":true,"internalType":"bytes32"}],"anonymous":false},{"type":"event","name":"RoleGranted","inputs":[{"name":"role","type":"bytes32","indexed":true,"internalType":"bytes32"},{"name":"account","type":"address","indexed":true,"internalType":"address"},{"name":"sender","type":"address","indexed":true,"internalType":"address"}],"anonymous":false},{"type":"event","name":"RoleRevoked","inputs":[{"name":"role","type":"bytes32","indexed":true,"internalType":"bytes32"},{"name":"account","type":"address","indexed":true,"internalType":"address"},{"name":"sender","type":"address","indexed":true,"internalType":"address"}],"anonymous":false},{"type":"event","name":"Transfer","inputs":[{"name":"from","type":"address","indexed":true,"internalType":"address"},{"name":"to","type":"address","indexed":true,"internalType":"address"},{"name":"value","type":"uint256","indexed":false,"internalType":"uint256"}],"anonymous":false},{"type":"event","name":"Unpaused","inputs":[{"name":"account","type":"address","indexed":true,"internalType":"address"}],"anonymous":false},{"type":"event","name":"ValidationFailed","inputs":[{"name":"reason","type":"string","indexed":false,"internalType":"string"},{"name":"value","type":"uint256","indexed":false,"internalType":"uint256"}],"anonymous":false},{"type":"error","name":"ReentrancyGuardReentrantCall","inputs":[]}],"bytecode":{"object":"0x6103e860055560e0604052600b60a09081526a14d958dd5c99505cdcd95d60aa1b60c052600d90620000329082620004cd565b5060408051808201909152600681526514d054d4d15560d21b6020820152600e906200005f9082620004cd565b503480156200006c575f80fd5b5060015f9081556200007f9033620001a1565b620000995f805160206200408383398151915233620001a1565b620000b35f80516020620040838339815191525f6200020f565b620000ed7f9f2df0fed2c77648de5860a4cc508cd0818c85b8b8a1ab4ceeef8d981c8956a65f80516020620040838339815191526200020f565b620001277f65d7a28e3265b37a6474929f336521b332c1681b933f6cb9f3376673440d862a5f80516020620040838339815191526200020f565b620001617f189ab7a9244df0848122154315af71fe140f3db0fe014031783b0946b8c9d2e35f80516020620040838339815191526200020f565b46608052426006556007805460ff191690556200019b33620001866012600a620006a2565b6200019590620f4240620006b2565b6200025b565b620006e2565b620001ad82826200038e565b6200020b575f8281526001602081815260408084206001600160a01b0386168086529252808420805460ff19169093179092559051339285917f2f8788117e7eff1d82e926ec794901d17c78024a50270940304540a733656f0d9190a45b5050565b5f828152600160208190526040808320909101805490849055905190918391839186917fbd79b86ffe0ab8e8776151514217cd7cacd52c909f66475c3af44e129f0b00ff9190a4505050565b6001600160a01b038216620002b75760405162461bcd60e51b815260206004820152601460248201527f4d696e7420746f207a65726f206164647265737300000000000000000000000060448201526064015b60405180910390fd5b600f54620002c69082620003ba565b600f556001600160a01b0382165f90815260106020526040902054620002ed9082620003ba565b6001600160a01b0383165f818152601060205260408082209390935591519091907fddf252ad1be2c89b69c2b068fc378daa952ba7f163c4a11628f55a4df523b3ef906200033e9085815260200190565b60405180910390a3816001600160a01b03167f0f6798a560793a54c3bcfe86a93cde1e73087d944c0ea20544137d4121396885826040516200038291815260200190565b60405180910390a25050565b5f8281526001602090815260408083206001600160a01b038516845290915290205460ff165b92915050565b5f80620003c88385620006cc565b905083811015620004265760405162461bcd60e51b815260206004820152602160248201527f496e70757456616c696461746f723a206164646974696f6e206f766572666c6f6044820152607760f81b6064820152608401620002ae565b9392505050565b634e487b7160e01b5f52604160045260245ffd5b600181811c908216806200045657607f821691505b6020821081036200047557634e487b7160e01b5f52602260045260245ffd5b50919050565b601f821115620004c8575f81815260208120601f850160051c81016020861015620004a35750805b601f850160051c820191505b81811015620004c457828155600101620004af565b5050505b505050565b81516001600160401b03811115620004e957620004e96200042d565b6200050181620004fa845462000441565b846200047b565b602080601f83116001811462000537575f84156200051f5750858301515b5f19600386901b1c1916600185901b178555620004c4565b5f85815260208120601f198616915b82811015620005675788860151825594840194600190910190840162000546565b50858210156200058557878501515f19600388901b60f8161c191681555b5050505050600190811b01905550565b634e487b7160e01b5f52601160045260245ffd5b600181815b80851115620005e957815f1904821115620005cd57620005cd62000595565b80851615620005db57918102915b93841c9390800290620005ae565b509250929050565b5f826200060157506001620003b4565b816200060f57505f620003b4565b8160018114620006285760028114620006335762000653565b6001915050620003b4565b60ff84111562000647576200064762000595565b50506001821b620003b4565b5060208310610133831016604e8410600b841016171562000678575081810a620003b4565b620006848383620005a9565b805f19048211156200069a576200069a62000595565b029392505050565b5f6200042660ff841683620005f1565b8082028115828204841417620003b457620003b462000595565b80820180821115620003b457620003b462000595565b60805161397a620007095f395f81816107e501528181612cd60152612d5c015261397a5ff3fe60806040526004361061037f575f3560e01c80637ecebe00116101d3578063d12c952b116100fd578063ddbcb5fa1161009d578063e7f481ae1161006d578063e7f481ae14610ab6578063eab8e2b814610aca578063f47c84c514610a82578063f72c0d8b14610b04575f80fd5b8063ddbcb5fa14610676578063de28f40114610a63578063e0b4dc6f14610a82578063e63ab1e914610a96575f80fd5b8063d538cd78116100d8578063d538cd78146109ae578063d5391393146109cd578063d547741f14610a00578063dd62ed3e14610a1f575f80fd5b8063d12c952b14610955578063d171ca5414610970578063d40dc8701461098f575f80fd5b806395d89b4111610173578063c43ad80d11610143578063c43ad80d146108c9578063cab7e8eb146108de578063cf5b4fd514610922578063cfdbf25414610941575f80fd5b806395d89b41146108645780639cf306c614610878578063a217fddf14610897578063a9059cbb146108aa575f80fd5b806385e1f4d0116101ae57806385e1f4d0146107d457806388d695b21461080757806391d148541461082657806395ccea6714610845575f80fd5b80637ecebe001461079557806380dd2be8146106765780638456cb59146107c0575f80fd5b80633d45fc8d116102b45780635043eaea1161025457806370c9b7d81161022457806370c9b7d81461072d57806375b238fc1461074c5780637a8f15eb146106765780637bffe7d21461076c575f80fd5b80635043eaea1461068a5780635c975abb146106a95780636a8a6894146106c057806370a08231146106f9575f80fd5b806341868e1c1161028f57806341868e1c1461061f57806342966c681461063357806345282a921461065257806347a0a5ca14610676575f80fd5b80633d45fc8d146105d85780633f4ba83a146105ec57806340c10f1914610600575f80fd5b80632a30f62b1161031f578063313ce567116102fa578063313ce5671461055f57806334ccc5ea14610585578063352238a71461059a57806336568abe146105b9575f80fd5b80632a30f62b146104ef5780632d0335ab1461050a5780632f2ff15d1461053e575f80fd5b80630fce76291161035a5780630fce76291461045657806318160ddd1461048d57806323b872dd146104a1578063248a9ca3146104c0575f80fd5b80630401f15e146103df57806306fdde0314610406578063095ea7b314610427575f80fd5b366103db5760405162461bcd60e51b815260206004820152602160248201527f44697265637420455448207472616e7366657273206e6f7420616363657074656044820152601960fa1b60648201526084015b60405180910390fd5b5f80fd5b3480156103ea575f80fd5b506103f3610b37565b6040519081526020015b60405180910390f35b348015610411575f80fd5b5061041a610b58565b6040516103fd9190613145565b348015610432575f80fd5b5061044661044136600461316d565b610be4565b60405190151581526020016103fd565b348015610461575f80fd5b50610446610470366004613195565b6001600160a01b03165f908152600b602052604090205460ff1690565b348015610498575f80fd5b50600f546103f3565b3480156104ac575f80fd5b506104466104bb3660046131ae565b610c47565b3480156104cb575f80fd5b506103f36104da3660046131e7565b5f908152600160208190526040909120015490565b3480156104fa575f80fd5b506103f3678ac7230489e8000081565b348015610515575f80fd5b506103f3610524366004613195565b6001600160a01b03165f9081526002602052604090205490565b348015610549575f80fd5b5061055d6105583660046131fe565b610d1d565b005b34801561056a575f80fd5b50610573601281565b60405160ff90911681526020016103fd565b348015610590575f80fd5b506103f361010081565b3480156105a5575f80fd5b506104466105b43660046132c2565b610d48565b3480156105c4575f80fd5b5061055d6105d33660046131fe565b610e3d565b3480156105e3575f80fd5b506103f3610ebb565b3480156105f7575f80fd5b5061055d610ecc565b34801561060b575f80fd5b5061055d61061a36600461316d565b610f80565b34801561062a575f80fd5b506103f3611054565b34801561063e575f80fd5b5061055d61064d3660046131e7565b611060565b34801561065d575f80fd5b506106666110db565b6040516103fd9493929190613332565b348015610681575f80fd5b506103f3600181565b348015610695575f80fd5b5061055d6106a4366004613195565b61118f565b3480156106b4575f80fd5b5060075460ff16610446565b3480156106cb575f80fd5b506104466106da36600461316d565b600360209081525f928352604080842090915290825290205460ff1681565b348015610704575f80fd5b506103f3610713366004613195565b6001600160a01b03165f9081526010602052604090205490565b348015610738575f80fd5b506103f3610747366004613195565b6111c8565b348015610757575f80fd5b506103f35f8051602061392583398151915281565b348015610777575f80fd5b50610780611225565b604080519283526020830191909152016103fd565b3480156107a0575f80fd5b506103f36107af366004613195565b60026020525f908152604090205481565b3480156107cb575f80fd5b5061055d6112b2565b3480156107df575f80fd5b506103f37f000000000000000000000000000000000000000000000000000000000000000081565b348015610812575f80fd5b506104466108213660046133e3565b611303565b348015610831575f80fd5b506104466108403660046131fe565b6114e9565b348015610850575f80fd5b5061055d61085f36600461316d565b611513565b34801561086f575f80fd5b5061041a6115da565b348015610883575f80fd5b5061055d610892366004613195565b6115e7565b3480156108a2575f80fd5b506103f35f81565b3480156108b5575f80fd5b506104466108c436600461316d565b611672565b3480156108d4575f80fd5b506103f36103e881565b3480156108e9575f80fd5b506104466108f836600461316d565b6001600160a01b03919091165f908152600360209081526040808320938352929052205460ff1690565b34801561092d575f80fd5b5061055d61093c36600461349d565b611736565b34801561094c575f80fd5b506103f3606481565b348015610960575f80fd5b506103f3670de0b6b3a764000081565b34801561097b575f80fd5b5061055d61098a36600461349d565b61185f565b34801561099a575f80fd5b506103f368327cb2734119d3b7a9601e1b81565b3480156109b9575f80fd5b506104466109c8366004613195565b6118cc565b3480156109d8575f80fd5b506103f37f9f2df0fed2c77648de5860a4cc508cd0818c85b8b8a1ab4ceeef8d981c8956a681565b348015610a0b575f80fd5b5061055d610a1a3660046131fe565b61194a565b348015610a2a575f80fd5b506103f3610a393660046134e2565b6001600160a01b039182165f90815260116020908152604080832093909416825291909152205490565b348015610a6e575f80fd5b506103f3610a7d36600461350a565b611970565b348015610a8d575f80fd5b506103f3600a81565b348015610aa1575f80fd5b506103f35f8051602061390583398151915281565b348015610ac1575f80fd5b506103f3603c81565b348015610ad5575f80fd5b50610ae9610ae4366004613195565b6119b7565b604080519384526020840192909252908201526060016103fd565b348015610b0f575f80fd5b506103f37f189ab7a9244df0848122154315af71fe140f3db0fe014031783b0946b8c9d2e381565b5f5f80516020613925833981519152610b508133611a80565b505060125490565b600d8054610b659061352a565b80601f0160208091040260200160405190810160405280929190818152602001828054610b919061352a565b8015610bdc5780601f10610bb357610100808354040283529160200191610bdc565b820191905f5260205f20905b815481529060010190602001808311610bbf57829003601f168201915b505050505081565b6007545f9060ff1615610c095760405162461bcd60e51b81526004016103d290613562565b826001600160a01b038116610c305760405162461bcd60e51b81526004016103d29061358c565b610c3b338585611ae4565b600191505b5092915050565b5f610c50611bf1565b60075460ff1615610c735760405162461bcd60e51b81526004016103d290613562565b610c7c33611c19565b826001600160a01b038116610ca35760405162461bcd60e51b81526004016103d29061358c565b826001811015610cc55760405162461bcd60e51b81526004016103d2906135c3565b68327cb2734119d3b7a9601e1b811115610cf15760405162461bcd60e51b81526004016103d2906135f8565b610cfc863386611d62565b610d07868686611de4565b600192505050610d1660015f55565b9392505050565b5f8281526001602081905260409091200154610d398133611a80565b610d43838361202d565b505050565b6007545f9060ff1615610d6d5760405162461bcd60e51b81526004016103d290613562565b846001600160a01b038116610d945760405162461bcd60e51b81526004016103d29061358c565b846001811015610db65760405162461bcd60e51b81526004016103d2906135c3565b68327cb2734119d3b7a9601e1b811115610de25760405162461bcd60e51b81526004016103d2906135f8565b604080516001600160a01b0389166020820152908101879052610e1b903390879060600160405160208183030381529060405287612097565b610e253386612110565b610e30338888611ae4565b5060019695505050505050565b6001600160a01b0381163314610ead5760405162461bcd60e51b815260206004820152602f60248201527f416363657373436f6e74726f6c3a2063616e206f6e6c792072656e6f756e636560448201526e103937b632b9903337b91039b2b63360891b60648201526084016103d2565b610eb78282612269565b5050565b5f610ec76013546122cf565b905090565b5f80516020613905833981519152610ee48133611a80565b60075460ff16610f2d5760405162461bcd60e51b815260206004820152601460248201527314185d5cd8589b194e881b9bdd081c185d5cd95960621b60448201526064016103d2565b6007805460ff1916905560408051602081019091525f8152600a90610f52908261367a565b5060405133907f5db9ee0a495bf2e6ff9c91a7834c1ba4fdd244a5e8aa4e537bd38aeae4b073aa905f90a250565b7f9f2df0fed2c77648de5860a4cc508cd0818c85b8b8a1ab4ceeef8d981c8956a6610fab8133611a80565b60075460ff1615610fce5760405162461bcd60e51b81526004016103d290613562565b826001600160a01b038116610ff55760405162461bcd60e51b81526004016103d29061358c565b8260018110156110175760405162461bcd60e51b81526004016103d2906135c3565b68327cb2734119d3b7a9601e1b8111156110435760405162461bcd60e51b81526004016103d2906135f8565b61104d85856122ec565b5050505050565b5f610ec76012546122cf565b60075460ff16156110835760405162461bcd60e51b81526004016103d290613562565b8060018110156110a55760405162461bcd60e51b81526004016103d2906135c3565b68327cb2734119d3b7a9601e1b8111156110d15760405162461bcd60e51b81526004016103d2906135f8565b610eb733836123fd565b5f805f606060075f9054906101000a900460ff16600854600954600a8080546111039061352a565b80601f016020809104026020016040519081016040528092919081815260200182805461112f9061352a565b801561117a5780601f106111515761010080835404028352916020019161117a565b820191905f5260205f20905b81548152906001019060200180831161115d57829003601f168201915b50505050509050935093509350935090919293565b5f805160206139258339815191526111a78133611a80565b506001600160a01b03165f908152600b60205260409020805460ff19169055565b6001600160a01b0381165f908152600c6020526040812054678ac7230489e80000116111f557505f919050565b6001600160a01b0382165f908152600c602052604090205461121f90678ac7230489e8000061374a565b92915050565b5f805f60065442611236919061374a565b90505f600a611246603c84613771565b6112509190613784565b905061126b81600554611263919061379b565b6103e8612578565b93505f6005546103e861127e919061374a565b90505f600a61128e603c84613784565b6112989190613771565b9050806006546112a8919061379b565b9450505050509091565b5f805160206139058339815191526112ca8133611a80565b6113006040518060400160405280601581526020017426b0b73ab0b6103830bab9b290313c9030b236b4b760591b81525061258d565b50565b5f61130c611bf1565b60075460ff161561132f5760405162461bcd60e51b81526004016103d290613562565b61133833611c19565b825160018110156113975760405162461bcd60e51b8152602060048201526024808201527f496e70757456616c696461746f723a2062617463682073697a6520746f6f20736044820152631b585b1b60e21b60648201526084016103d2565b60648111156113f45760405162461bcd60e51b8152602060048201526024808201527f496e70757456616c696461746f723a2062617463682073697a6520746f6f206c6044820152636172676560e01b60648201526084016103d2565b6113fd84612614565b61140784846126b9565b5f61141184612718565b335f908152601060205260409020549091508111156114425760405162461bcd60e51b81526004016103d2906137ae565b5f5b855181101561149c5761148a33878381518110611463576114636137dc565b602002602001015187848151811061147d5761147d6137dc565b6020026020010151611de4565b80611494816137f0565b915050611444565b508451604080519182526020820183905233917f762d9d59f4cdcadad8125dfd5b9228c3f3710c17cd800b7e446f4bacba81a69f910160405180910390a260019250505061121f60015f55565b5f9182526001602090815260408084206001600160a01b0393909316845291905290205460ff1690565b5f8051602061392583398151915261152b8133611a80565b60075460ff166115745760405162461bcd60e51b815260206004820152601460248201527314185d5cd8589b194e881b9bdd081c185d5cd95960621b60448201526064016103d2565b826001600160a01b03811661159b5760405162461bcd60e51b81526004016103d29061358c565b335f908152601060205260409020548311156115c95760405162461bcd60e51b81526004016103d2906137ae565b6115d4338585611de4565b50505050565b600e8054610b659061352a565b5f805160206139258339815191526115ff8133611a80565b6001600160a01b03821661164e5760405162461bcd60e51b81526020600482015260166024820152755061757361626c653a207a65726f206164647265737360501b60448201526064016103d2565b506001600160a01b03165f908152600b60205260409020805460ff19166001179055565b5f61167b611bf1565b60075460ff161561169e5760405162461bcd60e51b81526004016103d290613562565b6116a733611c19565b826001600160a01b0381166116ce5760405162461bcd60e51b81526004016103d29061358c565b8260018110156116f05760405162461bcd60e51b81526004016103d2906135c3565b68327cb2734119d3b7a9601e1b81111561171c5760405162461bcd60e51b81526004016103d2906135f8565b611727338686611de4565b60019250505061121f60015f55565b335f908152600b602052604090205460ff168061176557506117655f80516020613905833981519152336114e9565b6117c65760405162461bcd60e51b815260206004820152602c60248201527f5061757361626c653a206e6f7420617574686f72697a656420666f7220656d6560448201526b7267656e637920706175736560a01b60648201526084016103d2565b5f8151116118125760405162461bcd60e51b815260206004820152601960248201527814185d5cd8589b194e881c99585cdbdb881c995c5d5a5c9959603a1b60448201526064016103d2565b61181b8161258d565b336001600160a01b03167fc50068396f19981cb0435611d2c97dde7b6882fdc3185a9fb8080fa756b3974d826040516118549190613145565b60405180910390a250565b5f805160206139058339815191526118778133611a80565b5f8251116118c35760405162461bcd60e51b815260206004820152601960248201527814185d5cd8589b194e881c99585cdbdb881c995c5d5a5c9959603a1b60448201526064016103d2565b610eb78261258d565b6001600160a01b0381165f908152600460205260408120600181015482036118f657505f92915050565b5f816001015442611907919061374a565b90505f6001611917603c84613771565b6119219190613784565b90505f61193d82855f0154611936919061379b565b600a612578565b6001119695505050505050565b5f82815260016020819052604090912001546119668133611a80565b610d438383612269565b5f808361198584670de0b6b3a7640000613784565b61198f9190613771565b9050670de0b6b3a76400006119a5826003613784565b6119af9190613771565b949350505050565b6001600160a01b0381165f90815260046020526040812060018101548291829182036119ed57600a5f4293509350935050611a79565b5f8160010154426119fe919061374a565b90505f6001611a0e603c84613771565b611a189190613784565b9050611a2c81845f0154611936919061379b565b6002840154845491975095505f90611a4590600a61374a565b90505f6001611a55603c84613784565b611a5f9190613771565b9050808560010154611a71919061379b565b955050505050505b9193909250565b611a8a82826114e9565b610eb757611aa2816001600160a01b0316601461286d565b611aad83602061286d565b604051602001611abe929190613808565b60408051601f198184030181529082905262461bcd60e51b82526103d291600401613145565b6001600160a01b038316611b3a5760405162461bcd60e51b815260206004820152601960248201527f417070726f76652066726f6d207a65726f20616464726573730000000000000060448201526064016103d2565b6001600160a01b038216611b905760405162461bcd60e51b815260206004820152601760248201527f417070726f766520746f207a65726f206164647265737300000000000000000060448201526064016103d2565b6001600160a01b038381165f8181526011602090815260408083209487168084529482529182902085905590518481527f8c5be1e5ebec7d5bd14f71427d1e84f3dd0314c0f7b2291e5b200ac8c7c3b92591015b60405180910390a3505050565b60025f5403611c1357604051633ee5aeb560e01b815260040160405180910390fd5b60025f55565b6001600160a01b0381165f9081526004602052604081206001810154909103611c4757600a81554260018201555b5f816001015442611c58919061374a565b90505f6001611c68603c84613771565b611c729190613784565b90508015611c94578254611c8b9061193690839061379b565b83554260018401555b825460011115611d2957836001600160a01b03167fa7382e9b0f37a34b8c7659176b27a0e82d2fb18f6eb6472b63d78ec4b498c4e542604051611cd991815260200190565b60405180910390a260405162461bcd60e51b815260206004820181905260248201527f526174654c696d697465723a2072617465206c696d697420657863656564656460448201526064016103d2565b6001835f015f828254611d3c919061374a565b925050819055506001836002015f828254611d57919061379b565b909155505050505050565b6001600160a01b038084165f9081526011602090815260408083209386168352929052205481811015611dd05760405162461bcd60e51b8152602060048201526016602482015275496e73756666696369656e7420616c6c6f77616e636560501b60448201526064016103d2565b6115d48484611ddf8486612a03565b611ae4565b6001600160a01b038316611e3a5760405162461bcd60e51b815260206004820152601a60248201527f5472616e736665722066726f6d207a65726f206164647265737300000000000060448201526064016103d2565b6001600160a01b038216611e905760405162461bcd60e51b815260206004820152601860248201527f5472616e7366657220746f207a65726f2061646472657373000000000000000060448201526064016103d2565b6001600160a01b0383165f90815260106020526040902054811115611ec75760405162461bcd60e51b81526004016103d2906137ae565b6001600160a01b0383165f90815260106020526040902054611ee99082612a03565b6001600160a01b038085165f908152601060205260408082209390935590841681522054611f179082612a6c565b6001600160a01b038084165f9081526010602090815260408083209490945591861681526014909152205460ff16611f7f576001600160a01b0383165f908152601460205260408120805460ff191660011790556013805491611f79836137f0565b91905055505b6001600160a01b0382165f9081526014602052604090205460ff16611fd4576001600160a01b0382165f908152601460205260408120805460ff191660011790556013805491611fce836137f0565b91905055505b60128054905f611fe3836137f0565b9190505550816001600160a01b0316836001600160a01b03167fddf252ad1be2c89b69c2b068fc378daa952ba7f163c4a11628f55a4df523b3ef83604051611be491815260200190565b61203782826114e9565b610eb7575f8281526001602081815260408084206001600160a01b0386168086529252808420805460ff19169093179092559051339285917f2f8788117e7eff1d82e926ec794901d17c78024a50270940304540a733656f0d9190a45050565b6120a18484612ad4565b5f6120ad848484612bad565b9050846001600160a01b0316816001600160a01b03161461104d5760405162461bcd60e51b815260206004820152601f60248201527f4e6f6e63654d616e616765723a20696e76616c6964207369676e61747572650060448201526064016103d2565b6001600160a01b0382165f9081526002602052604090205481146121765760405162461bcd60e51b815260206004820152601b60248201527f4e6f6e63654d616e616765723a20696e76616c6964206e6f6e6365000000000060448201526064016103d2565b6001600160a01b0382165f90815260036020908152604080832084845290915290205460ff16156121e95760405162461bcd60e51b815260206004820181905260248201527f4e6f6e63654d616e616765723a206e6f6e636520616c7265616479207573656460448201526064016103d2565b6121f481600161379b565b6001600160a01b0383165f81815260026020908152604080832094909455600381528382208583529052829020805460ff1916600117905590517f2af71f10069c28afc67c3752e87e0e4616a97948d33c8f404a856c0c334b3e019061225d9084815260200190565b60405180910390a25050565b61227382826114e9565b15610eb7575f8281526001602090815260408083206001600160a01b0385168085529252808320805460ff1916905551339285917ff6391f5c32d9c69d2a47ea670b442974b53935d1edc7fd64eb21e047a839171b9190a45050565b5f806122da83612e41565b90505f81121561121f57505f92915050565b6001600160a01b0382166123395760405162461bcd60e51b81526020600482015260146024820152734d696e7420746f207a65726f206164647265737360601b60448201526064016103d2565b612345600f5482612a6c565b600f556001600160a01b0382165f9081526010602052604090205461236a9082612a6c565b6001600160a01b0383165f818152601060205260408082209390935591519091907fddf252ad1be2c89b69c2b068fc378daa952ba7f163c4a11628f55a4df523b3ef906123ba9085815260200190565b60405180910390a3816001600160a01b03167f0f6798a560793a54c3bcfe86a93cde1e73087d944c0ea20544137d41213968858260405161225d91815260200190565b6001600160a01b03821661244c5760405162461bcd60e51b81526020600482015260166024820152754275726e2066726f6d207a65726f206164647265737360501b60448201526064016103d2565b6001600160a01b0382165f908152601060205260409020548111156124b35760405162461bcd60e51b815260206004820152601b60248201527f4275726e20616d6f756e7420657863656564732062616c616e6365000000000060448201526064016103d2565b6001600160a01b0382165f908152601060205260409020546124d59082612a03565b6001600160a01b0383165f90815260106020526040902055600f546124fa9082612a03565b600f556040518181525f906001600160a01b038416907fddf252ad1be2c89b69c2b068fc378daa952ba7f163c4a11628f55a4df523b3ef9060200160405180910390a3816001600160a01b03167fcc16f5dbb4873280815c1ee09dbd06736cffcc184412cf7a71a0fdb75d397ca58260405161225d91815260200190565b5f8183106125865781610d16565b5090919050565b60075460ff16156125b05760405162461bcd60e51b81526004016103d290613562565b6007805460ff19166001908117909155600880545f906125d190849061379b565b909155505042600955600a6125e6828261367a565b5060405133907f62e78cea01bee320cd4e420270b5ea74000d11b0c9f74754ebdbfc544b05a258905f90a250565b5f5b8151811015610eb7575f6001600160a01b031682828151811061263b5761263b6137dc565b60200260200101516001600160a01b0316036126a75760405162461bcd60e51b815260206004820152602560248201527f496e70757456616c696461746f723a207a65726f206164647265737320696e20604482015264617272617960d81b60648201526084016103d2565b806126b1816137f0565b915050612616565b8051825114610eb75760405162461bcd60e51b815260206004820152602560248201527f496e70757456616c696461746f723a206172726179206c656e677468206d69736044820152640dac2e8c6d60db1b60648201526084016103d2565b5f805b825181101561280b5768327cb2734119d3b7a9601e1b838281518110612743576127436137dc565b602002602001015111156127695760405162461bcd60e51b81526004016103d2906135f8565b82818151811061277b5761277b6137dc565b60200260200101518261278e919061379b565b91508281815181106127a2576127a26137dc565b60200260200101518210156127f95760405162461bcd60e51b815260206004820152601e60248201527f496e70757456616c696461746f723a20746f74616c206f766572666c6f77000060448201526064016103d2565b80612803816137f0565b91505061271b565b5068327cb2734119d3b7a9601e1b8111156128685760405162461bcd60e51b815260206004820152601f60248201527f496e70757456616c696461746f723a20746f74616c20746f6f206c617267650060448201526064016103d2565b919050565b60605f61287b836002613784565b61288690600261379b565b67ffffffffffffffff81111561289e5761289e613228565b6040519080825280601f01601f1916602001820160405280156128c8576020820181803683370190505b509050600360fc1b815f815181106128e2576128e26137dc565b60200101906001600160f81b03191690815f1a905350600f60fb1b81600181518110612910576129106137dc565b60200101906001600160f81b03191690815f1a9053505f612932846002613784565b61293d90600161379b565b90505b60018111156129b4576f181899199a1a9b1b9c1cb0b131b232b360811b85600f1660108110612971576129716137dc565b1a60f81b828281518110612987576129876137dc565b60200101906001600160f81b03191690815f1a90535060049490941c936129ad8161387c565b9050612940565b508315610d165760405162461bcd60e51b815260206004820152601760248201527f486578206c656e67746820696e73756666696369656e7400000000000000000060448201526064016103d2565b5f82821115612a625760405162461bcd60e51b815260206004820152602560248201527f496e70757456616c696461746f723a207375627472616374696f6e20756e646560448201526472666c6f7760d81b60648201526084016103d2565b610d16828461374a565b5f80612a78838561379b565b905083811015610d165760405162461bcd60e51b815260206004820152602160248201527f496e70757456616c696461746f723a206164646974696f6e206f766572666c6f6044820152607760f81b60648201526084016103d2565b6001600160a01b0382165f908152600260205260409020548114612b3a5760405162461bcd60e51b815260206004820152601b60248201527f4e6f6e63654d616e616765723a20696e76616c6964206e6f6e6365000000000060448201526064016103d2565b6001600160a01b0382165f90815260036020908152604080832084845290915290205460ff1615610eb75760405162461bcd60e51b815260206004820181905260248201527f4e6f6e63654d616e616765723a206e6f6e636520616c7265616479207573656460448201526064016103d2565b5f8151604114612c0e5760405162461bcd60e51b815260206004820152602660248201527f4e6f6e63654d616e616765723a20696e76616c6964207369676e6174757265206044820152650d8cadccee8d60d31b60648201526084016103d2565b6020820151604083015160608401515f90811a90612d1e604080518082018252601281527129b2b1bab932a0b9b9b2ba26b0b730b3b2b960711b6020918201528151808301835260018152603160f81b9082015281517f8b73c3c69bb8fe3d512ecc4cf759cc79239f7b179b0ffacaa9a75d522b39400f818301527f5800d85defde09b7412c91250c3efb90962b1e1c810b83b797a9b67223fbb8ef818401527fc89efdaa54c0f20c7adf612882df0950f5a951637e0307cdcb4c672f298b8bc660608201527f000000000000000000000000000000000000000000000000000000000000000060808201523060a0808301919091528351808303909101815260c0909101909252815191012090565b87516020808a0191909120604080517fbf19fbff844bd923b55179439cc82a43d8b9fa1a39e2f3d01ff0b987f8a6bcdd9381019390935282018b90527f00000000000000000000000000000000000000000000000000000000000000006060830152608082015260a00160405160208183030381529060405280519060200120604051602001612dc592919061190160f01b81526002810192909252602282015260420190565b60408051601f1981840301815282825280516020918201205f845290830180835281905260ff8516918301919091526060820186905260808201859052915060019060a0016020604051602081039080840390855afa158015612e2a573d5f803e3d5ffd5b5050604051601f1901519998505050505050505050565b5f61121f826001670de0b6b3a7640000845f82612e6685670de0b6b3a7640000613784565b612e709190613771565b90505f612e7c82612e92565b9050612e888187613891565b9695505050505050565b5f80424433612ea260014361374a565b6040805160208101959095528401929092526bffffffffffffffffffffffff19606091821b169083015240607482015260940160408051601f1981840301815291905280516020909101209050805f612f03670de0b6b3a7640000836138b8565b90506706f05b59d3b2000081105f81612f2d57612f286706f05b59d3b200008461374a565b612f3f565b612f3f836706f05b59d3b2000061374a565b90506706f05b59d3b200008110612f5b57506706f05b59d3b1ffff5b5f6706f05b59d3b20000612f70836002613784565b612f8290670de0b6b3a7640000613784565b612f8c9190613771565b90505f612fa9612fa483670de0b6b3a764000061374a565b612fff565b90505f670de0b6b3a7640000612fbe836138cb565b612fc8908c613784565b612fd29190613771565b612fdb906138cb565b905084612fe85780612ff1565b612ff1816138cb565b9a9950505050505050505050565b5f80821180156130175750670de0b6b3a76400008211155b61306f5760405162461bcd60e51b815260206004820152602360248201527f446966666572656e7469616c507269766163793a2078206f7574206f662072616044820152626e676560e81b60648201526084016103d2565b81670de0b6b3a76400000361308557505f919050565b5f61309883670de0b6b3a764000061374a565b90505f8160015b600a81116130ee576130b18183613771565b6130bb90846138e5565b9250670de0b6b3a76400006130d08584613784565b6130da9190613771565b9150806130e6816137f0565b91505061309f565b5090949350505050565b5f5b838110156131125781810151838201526020016130fa565b50505f910152565b5f81518084526131318160208601602086016130f8565b601f01601f19169290920160200192915050565b602081525f610d16602083018461311a565b80356001600160a01b0381168114612868575f80fd5b5f806040838503121561317e575f80fd5b61318783613157565b946020939093013593505050565b5f602082840312156131a5575f80fd5b610d1682613157565b5f805f606084860312156131c0575f80fd5b6131c984613157565b92506131d760208501613157565b9150604084013590509250925092565b5f602082840312156131f7575f80fd5b5035919050565b5f806040838503121561320f575f80fd5b8235915061321f60208401613157565b90509250929050565b634e487b7160e01b5f52604160045260245ffd5b604051601f8201601f1916810167ffffffffffffffff8111828210171561326557613265613228565b604052919050565b5f67ffffffffffffffff83111561328657613286613228565b613299601f8401601f191660200161323c565b90508281528383830111156132ac575f80fd5b828260208301375f602084830101529392505050565b5f805f80608085870312156132d5575f80fd5b6132de85613157565b93506020850135925060408501359150606085013567ffffffffffffffff811115613307575f80fd5b8501601f81018713613317575f80fd5b6133268782356020840161326d565b91505092959194509250565b8415158152836020820152826040820152608060608201525f612e88608083018461311a565b5f67ffffffffffffffff82111561337157613371613228565b5060051b60200190565b5f82601f83011261338a575f80fd5b8135602061339f61339a83613358565b61323c565b82815260059290921b840181019181810190868411156133bd575f80fd5b8286015b848110156133d857803583529183019183016133c1565b509695505050505050565b5f80604083850312156133f4575f80fd5b823567ffffffffffffffff8082111561340b575f80fd5b818501915085601f83011261341e575f80fd5b8135602061342e61339a83613358565b82815260059290921b8401810191818101908984111561344c575f80fd5b948201945b838610156134715761346286613157565b82529482019490820190613451565b96505086013592505080821115613486575f80fd5b506134938582860161337b565b9150509250929050565b5f602082840312156134ad575f80fd5b813567ffffffffffffffff8111156134c3575f80fd5b8201601f810184136134d3575f80fd5b6119af8482356020840161326d565b5f80604083850312156134f3575f80fd5b6134fc83613157565b915061321f60208401613157565b5f806040838503121561351b575f80fd5b50508035926020909101359150565b600181811c9082168061353e57607f821691505b60208210810361355c57634e487b7160e01b5f52602260045260245ffd5b50919050565b60208082526010908201526f14185d5cd8589b194e881c185d5cd95960821b604082015260600190565b6020808252601c908201527f496e70757456616c696461746f723a207a65726f206164647265737300000000604082015260600190565b6020808252818101527f496e70757456616c696461746f723a20616d6f756e7420746f6f20736d616c6c604082015260600190565b6020808252818101527f496e70757456616c696461746f723a20616d6f756e7420746f6f206c61726765604082015260600190565b601f821115610d43575f81815260208120601f850160051c810160208610156136535750805b601f850160051c820191505b818110156136725782815560010161365f565b505050505050565b815167ffffffffffffffff81111561369457613694613228565b6136a8816136a2845461352a565b8461362d565b602080601f8311600181146136db575f84156136c45750858301515b5f19600386901b1c1916600185901b178555613672565b5f85815260208120601f198616915b82811015613709578886015182559484019460019091019084016136ea565b508582101561372657878501515f19600388901b60f8161c191681555b5050505050600190811b01905550565b634e487b7160e01b5f52601160045260245ffd5b8181038181111561121f5761121f613736565b634e487b7160e01b5f52601260045260245ffd5b5f8261377f5761377f61375d565b500490565b808202811582820484141761121f5761121f613736565b8082018082111561121f5761121f613736565b602080825260149082015273496e73756666696369656e742062616c616e636560601b604082015260600190565b634e487b7160e01b5f52603260045260245ffd5b5f6001820161380157613801613736565b5060010190565b7f416363657373436f6e74726f6c3a206163636f756e742000000000000000000081525f835161383f8160178501602088016130f8565b7001034b99036b4b9b9b4b733903937b6329607d1b60179184019182015283516138708160288401602088016130f8565b01602801949350505050565b5f8161388a5761388a613736565b505f190190565b8082018281125f8312801582168215821617156138b0576138b0613736565b505092915050565b5f826138c6576138c661375d565b500690565b5f600160ff1b82016138df576138df613736565b505f0390565b8181035f831280158383131683831282161715610c4057610c4061373656fe65d7a28e3265b37a6474929f336521b332c1681b933f6cb9f3376673440d862aa49807205ce4d355092ef5a8a18f56e8913cf4a201fbe287825b095693c21775a26469706673582212206942a35c0c7950cb51b3ae66282d083c7d71fe4614dc2dbac6ec5e648cc8757d64736f6c63430008140033a49807205ce4d355092ef5a8a18f56e8913cf4a201fbe287825b095693c21775","linkReferences":{}},"methodIdentifiers":{"ADMIN_ROLE()":"75b238fc","CHAIN_ID()":"85e1f4d0","DEFAULT_ADMIN_ROLE()":"a217fddf","EPSILON()":"d12c952b","GLOBAL_MAX_TOKENS()":"c43ad80d","GLOBAL_REFILL_RATE()":"e0b4dc6f","MAX_AMOUNT()":"d40dc870","MAX_BATCH_SIZE()":"cfdbf254","MAX_PRIVACY_BUDGET()":"2a30f62b","MAX_STRING_LENGTH()":"34ccc5ea","MAX_TOKENS()":"f47c84c5","MINTER_ROLE()":"d5391393","MIN_AMOUNT()":"ddbcb5fa","MIN_BATCH_SIZE()":"80dd2be8","PAUSER_ROLE()":"e63ab1e9","REFILL_RATE()":"47a0a5ca","SENSITIVITY()":"7a8f15eb","TIME_UNIT()":"e7f481ae","UPGRADER_ROLE()":"f72c0d8b","addEmergencyPauser(address)":"9cf306c6","allowance(address,address)":"dd62ed3e","approve(address,uint256)":"095ea7b3","approveWithNonce(address,uint256,uint256,bytes)":"352238a7","balanceOf(address)":"70a08231","batchTransfer(address[],uint256[])":"88d695b2","burn(uint256)":"42966c68","decimals()":"313ce567","emergencyPause(string)":"cf5b4fd5","emergencyWithdraw(address,uint256)":"95ccea67","getConfidenceInterval(uint256,uint256)":"de28f401","getGlobalRateLimitStatus()":"7bffe7d2","getNonce(address)":"2d0335ab","getPauseInfo()":"45282a92","getPrivateTransactionCount()":"41868e1c","getPrivateUserCount()":"3d45fc8d","getRateLimitStatus(address)":"eab8e2b8","getRemainingPrivacyBudget(address)":"70c9b7d8","getRoleAdmin(bytes32)":"248a9ca3","getTrueTransactionCount()":"0401f15e","grantRole(bytes32,address)":"2f2ff15d","hasRole(bytes32,address)":"91d14854","isEmergencyPauser(address)":"0fce7629","isNonceUsed(address,uint256)":"cab7e8eb","mint(address,uint256)":"40c10f19","name()":"06fdde03","nonces(address)":"7ecebe00","pause()":"8456cb59","pauseWithReason(string)":"d171ca54","paused()":"5c975abb","removeEmergencyPauser(address)":"5043eaea","renounceRole(bytes32,address)":"36568abe","revokeRole(bytes32,address)":"d547741f","symbol()":"95d89b41","totalSupply()":"18160ddd","transfer(address,uint256)":"a9059cbb","transferFrom(address,address,uint256)":"23b872dd","unpause()":"3f4ba83a","usedNonces(address,uint256)":"6a8a6894","wouldBeRateLimited(address)":"d538cd78"},"id":12}