{"contracts/AgriSensorData.sol":{"AgriSensorData":{"abi":[{"inputs":[],"stateMutability":"nonpayable","type":"constructor"},{"inputs":[],"name":"AccessControlBadConfirmation","type":"error"},{"inputs":[{"internalType":"address","name":"account","type":"address"},{"internalType":"bytes32","name":"neededRole","type":"bytes32"}],"name":"AccessControlUnauthorizedAccount","type":"error"},{"inputs":[],"name":"ArrayLengthMismatch","type":"error"},{"inputs":[],"name":"DuplicateDataHash","type":"error"},{"inputs":[],"name":"EnforcedPause","type":"error"},{"inputs":[],"name":"ExpectedPause","type":"error"},{"inputs":[],"name":"InvalidSensorData","type":"error"},{"inputs":[],"name":"ReadingNotFound","type":"error"},{"inputs":[],"name":"UnauthorizedDevice","type":"error"},{"anonymous":false,"inputs":[{"indexed":true,"internalType":"uint256","name":"readingId","type":"uint256"},{"indexed":true,"internalType":"address","name":"deviceId","type":"address"},{"indexed":false,"internalType":"string","name":"anomalyType","type":"string"}],"name":"AnomalyDetected","type":"event"},{"anonymous":false,"inputs":[{"indexed":true,"internalType":"uint256","name":"eventId","type":"uint256"},{"indexed":true,"internalType":"uint256","name":"farmId","type":"uint256"},{"indexed":false,"internalType":"string","name":"eventType","type":"string"},{"indexed":false,"internalType":"uint256","name":"timestamp","type":"uint256"}],"name":"CropEventRecorded","type":"event"},{"anonymous":false,"inputs":[{"indexed":false,"internalType":"address","name":"account","type":"address"}],"name":"Paused","type":"event"},{"anonymous":false,"inputs":[{"indexed":true,"internalType":"bytes32","name":"role","type":"bytes32"},{"indexed":true,"internalType":"bytes32","name":"previousAdminRole","type":"bytes32"},{"indexed":true,"internalType":"bytes32","name":"newAdminRole","type":"bytes32"}],"name":"RoleAdminChanged","type":"event"},{"anonymous":false,"inputs":[{"indexed":true,"internalType":"bytes32","name":"role","type":"bytes32"},{"indexed":true,"internalType":"address","name":"account","type":"address"},{"indexed":true,"internalType":"address","name":"sender","type":"address"}],"name":"RoleGranted","type":"event"},{"anonymous":false,"inputs":[{"indexed":true,"internalType":"bytes32","name":"role","type":"bytes32"},{"indexed":true,"internalType":"address","name":"account","type":"address"},{"indexed":true,"internalType":"address","name":"sender","type":"address"}],"name":"RoleRevoked","type":"event"},{"anonymous":false,"inputs":[{"indexed":true,"internalType":"uint256","name":"readingId","type":"uint256"},{"indexed":true,"internalType":"address","name":"deviceId","type":"address"},{"indexed":true,"internalType":"uint256","name":"farmId","type":"uint256"},{"indexed":false,"internalType":"uint256","name":"timestamp","type":"uint256"}],"name":"SensorDataSubmitted","type":"event"},{"anonymous":false,"inputs":[{"indexed":true,"internalType":"uint256","name":"stageId","type":"uint256"},{"indexed":true,"internalType":"uint256","name":"productId","type":"uint256"},{"indexed":false,"internalType":"string","name":"stage","type":"string"},{"indexed":false,"internalType":"uint256","name":"timestamp","type":"uint256"}],"name":"SupplyChainStageRecorded","type":"event"},{"anonymous":false,"inputs":[{"indexed":false,"internalType":"address","name":"account","type":"address"}],"name":"Unpaused","type":"event"},{"inputs":[],"name":"DEFAULT_ADMIN_ROLE","outputs":[{"internalType":"bytes32","name":"","type":"bytes32"}],"stateMutability":"view","type":"function"},{"inputs":[],"name":"DEVICE_ROLE","outputs":[{"internalType":"bytes32","name":"","type":"bytes32"}],"stateMutability":"view","type":"function"},{"inputs":[],"name":"FARMER_ROLE","outputs":[{"internalType":"bytes32","name":"","type":"bytes32"}],"stateMutability":"view","type":"function"},{"inputs":[],"name":"MAX_BATCH_SIZE","outputs":[{"internalType":"uint256","name":"","type":"uint256"}],"stateMutability":"view","type":"function"},{"inputs":[],"name":"RESEARCHER_ROLE","outputs":[{"internalType":"bytes32","name":"","type":"bytes32"}],"stateMutability":"view","type":"function"},{"inputs":[],"name":"SUBMISSION_COOLDOWN","outputs":[{"internalType":"uint256","name":"","type":"uint256"}],"stateMutability":"view","type":"function"},{"inputs":[],"name":"SUPPLY_CHAIN_ROLE","outputs":[{"internalType":"bytes32","name":"","type":"bytes32"}],"stateMutability":"view","type":"function"},{"inputs":[{"internalType":"uint256","name":"","type":"uint256"}],"name":"cropEvents","outputs":[{"internalType":"uint256","name":"farmId","type":"uint256"},{"internalType":"string","name":"eventType","type":"string"},{"internalType":"uint256","name":"timestamp","type":"uint256"},{"internalType":"string","name":"notes","type":"string"},{"internalType":"bytes32","name":"linkedDataHash","type":"bytes32"}],"stateMutability":"view","type":"function"},{"inputs":[{"internalType":"bytes32","name":"","type":"bytes32"}],"name":"dataHashes","outputs":[{"internalType":"bool","name":"","type":"bool"}],"stateMutability":"view","type":"function"},{"inputs":[{"internalType":"uint256","name":"","type":"uint256"},{"internalType":"uint256","name":"","type":"uint256"}],"name":"farmToCropEvents","outputs":[{"internalType":"uint256","name":"","type":"uint256"}],"stateMutability":"view","type":"function"},{"inputs":[{"internalType":"uint256","name":"","type":"uint256"},{"internalType":"uint256","name":"","type":"uint256"}],"name":"farmToReadings","outputs":[{"internalType":"uint256","name":"","type":"uint256"}],"stateMutability":"view","type":"function"},{"inputs":[{"internalType":"uint256","name":"farmId","type":"uint256"}],"name":"getCropEventsByFarm","outputs":[{"internalType":"uint256[]","name":"","type":"uint256[]"}],"stateMutability":"view","type":"function"},{"inputs":[{"internalType":"uint256","name":"farmId","type":"uint256"}],"name":"getReadingsByFarm","outputs":[{"internalType":"uint256[]","name":"","type":"uint256[]"}],"stateMutability":"view","type":"function"},{"inputs":[{"internalType":"bytes32","name":"role","type":"bytes32"}],"name":"getRoleAdmin","outputs":[{"internalType":"bytes32","name":"","type":"bytes32"}],"stateMutability":"view","type":"function"},{"inputs":[{"internalType":"uint256","name":"productId","type":"uint256"}],"name":"getSupplyChainStages","outputs":[{"internalType":"uint256[]","name":"","type":"uint256[]"}],"stateMutability":"view","type":"function"},{"inputs":[],"name":"getTotalCropEvents","outputs":[{"internalType":"uint256","name":"","type":"uint256"}],"stateMutability":"view","type":"function"},{"inputs":[],"name":"getTotalReadings","outputs":[{"internalType":"uint256","name":"","type":"uint256"}],"stateMutability":"view","type":"function"},{"inputs":[],"name":"getTotalSupplyChainStages","outputs":[{"internalType":"uint256","name":"","type":"uint256"}],"stateMutability":"view","type":"function"},{"inputs":[{"internalType":"bytes32","name":"role","type":"bytes32"},{"internalType":"address","name":"account","type":"address"}],"name":"grantRole","outputs":[],"stateMutability":"nonpayable","type":"function"},{"inputs":[{"internalType":"bytes32","name":"role","type":"bytes32"},{"internalType":"address","name":"account","type":"address"}],"name":"hasRole","outputs":[{"internalType":"bool","name":"","type":"bool"}],"stateMutability":"view","type":"function"},{"inputs":[{"internalType":"address","name":"","type":"address"}],"name":"lastSubmissionTime","outputs":[{"internalType":"uint256","name":"","type":"uint256"}],"stateMutability":"view","type":"function"},{"inputs":[],"name":"pause","outputs":[],"stateMutability":"nonpayable","type":"function"},{"inputs":[],"name":"paused","outputs":[{"internalType":"bool","name":"","type":"bool"}],"stateMutability":"view","type":"function"},{"inputs":[{"internalType":"uint256","name":"","type":"uint256"},{"internalType":"uint256","name":"","type":"uint256"}],"name":"productToStages","outputs":[{"internalType":"uint256","name":"","type":"uint256"}],"stateMutability":"view","type":"function"},{"inputs":[{"internalType":"uint256","name":"","type":"uint256"}],"name":"readings","outputs":[{"internalType":"uint256","name":"timestamp","type":"uint256"},{"internalType":"address","name":"deviceId","type":"address"},{"internalType":"uint256","name":"farmId","type":"uint256"},{"internalType":"int16","name":"temperature","type":"int16"},{"internalType":"uint16","name":"soilMoisture","type":"uint16"},{"internalType":"uint16","name":"humidity","type":"uint16"},{"internalType":"bytes32","name":"dataHash","type":"bytes32"}],"stateMutability":"view","type":"function"},{"inputs":[{"internalType":"uint256","name":"farmId","type":"uint256"},{"internalType":"string","name":"eventType","type":"string"},{"internalType":"string","name":"notes","type":"string"},{"internalType":"bytes32","name":"linkedDataHash","type":"bytes32"}],"name":"recordCropEvent","outputs":[],"stateMutability":"nonpayable","type":"function"},{"inputs":[{"internalType":"uint256","name":"productId","type":"uint256"},{"internalType":"string","name":"stage","type":"string"},{"internalType":"string","name":"location","type":"string"},{"internalType":"bytes32","name":"linkedDataHash","type":"bytes32"}],"name":"recordSupplyChainStage","outputs":[],"stateMutability":"nonpayable","type":"function"},{"inputs":[{"internalType":"bytes32","name":"role","type":"bytes32"},{"internalType":"address","name":"callerConfirmation","type":"address"}],"name":"renounceRole","outputs":[],"stateMutability":"nonpayable","type":"function"},{"inputs":[{"internalType":"bytes32","name":"role","type":"bytes32"},{"internalType":"address","name":"account","type":"address"}],"name":"revokeRole","outputs":[],"stateMutability":"nonpayable","type":"function"},{"inputs":[{"internalType":"uint256[]","name":"farmIds","type":"uint256[]"},{"internalType":"int16[]","name":"temperatures","type":"int16[]"},{"internalType":"uint16[]","name":"moistures","type":"uint16[]"},{"internalType":"uint16[]","name":"humidities","type":"uint16[]"}],"name":"submitBatch","outputs":[],"stateMutability":"nonpayable","type":"function"},{"inputs":[{"internalType":"uint256","name":"farmId","type":"uint256"},{"internalType":"int16","name":"temperature","type":"int16"},{"internalType":"uint16","name":"soilMoisture","type":"uint16"},{"internalType":"uint16","name":"humidity","type":"uint16"}],"name":"submitSensorData","outputs":[],"stateMutability":"nonpayable","type":"function"},{"inputs":[{"internalType":"uint256","name":"","type":"uint256"}],"name":"supplyChainStages","outputs":[{"internalType":"uint256","name":"productId","type":"uint256"},{"internalType":"string","name":"stage","type":"string"},{"internalType":"uint256","name":"timestamp","type":"uint256"},{"internalType":"address","name":"recorder","type":"address"},{"internalType":"string","name":"location","type":"string"},{"internalType":"bytes32","name":"linkedDataHash","type":"bytes32"}],"stateMutability":"view","type":"function"},{"inputs":[{"internalType":"bytes4","name":"interfaceId","type":"bytes4"}],"name":"supportsInterface","outputs":[{"internalType":"bool","name":"","type":"bool"}],"stateMutability":"view","type":"function"},{"inputs":[],"name":"unpause","outputs":[],"stateMutability":"nonpayable","type":"function"},{"inputs":[{"internalType":"uint256","name":"readingId","type":"uint256"}],"name":"verifyReading","outputs":[{"internalType":"bool","name":"valid","type":"bool"},{"internalType":"bytes32","name":"storedHash","type":"bytes32"}],"stateMutability":"view","type":"function"}],"evm":{"bytecode":{"linkReferences":{},"object":"60806040523480156200001157600080fd5b506200001f600033620000da565b506200004c7f48404ec5122cfef2c4b0b727fa211cfb1e815e1b19d5c56f7d3cc0c616120a2833620000da565b50620000797f7c6181838a71a779e445600d4c6ecbe16bacf2b3c5bda69c29fada66d1b645d133620000da565b50620000a67f7765bfe615aab9fb9a16bd4c5c9b353f39dae79ca7da86094b0a74ea8a89e59a33620000da565b50620000d37f9fdd832c63a06cff8edefff7231d8026fd177377608db1841f7c881716ea19bc33620000da565b5062000189565b6000828152602081815260408083206001600160a01b038516845290915281205460ff166200017f576000838152602081815260408083206001600160a01b03861684529091529020805460ff19166001179055620001363390565b6001600160a01b0316826001600160a01b0316847f2f8788117e7eff1d82e926ec794901d17c78024a50270940304540a733656f0d60405160405180910390a450600162000183565b5060005b92915050565b6122a880620001996000396000f3fe608060405234801561001057600080fd5b50600436106102115760003560e01c806388c3603511610125578063b0e26d70116100ad578063f2410ef71161007c578063f2410ef7146104e6578063f24cb0341461050b578063f394397014610532578063faf1fba614610559578063fda7503b1461056c57600080fd5b8063b0e26d701461044a578063cfdbf25414610471578063d547741f14610479578063d5da886d1461048c57600080fd5b8063a0ec242a116100f4578063a0ec242a146103dd578063a217fddf146103e5578063a4365476146103ed578063a9bf74191461040d578063aaf107521461042057600080fd5b806388c360351461038c5780638e07dd941461039f5780638ea768fe146103a757806391d14854146103ca57600080fd5b806350f2aab3116101a85780636ed71357116101775780636ed713571461034e57806372067fe914610356578063776cce90146103695780638456cb5914610371578063864b64851461037957600080fd5b806350f2aab3146102e957806356c70ed61461031057806358cfe812146103235780635c975abb1461034357600080fd5b80632f2ff15d116101e45780632f2ff15d1461029757806336568abe146102aa5780633f4ba83a146102bd5780634688f7db146102c557600080fd5b806301ffc9a7146102165780630d8d976c1461023e5780630faa74e514610253578063248a9ca314610266575b600080fd5b610229610224366004611c37565b61057f565b60405190151581526020015b60405180910390f35b61025161024c366004611cb4565b6105b6565b005b610251610261366004611dba565b610b82565b610289610274366004611e3c565b60009081526020819052604090206001015490565b604051908152602001610235565b6102516102a5366004611e71565b610d1c565b6102516102b8366004611e71565b610d47565b610251610d7f565b6102d86102d3366004611e3c565b610d95565b604051610235959493929190611ee3565b6102897f7765bfe615aab9fb9a16bd4c5c9b353f39dae79ca7da86094b0a74ea8a89e59a81565b61028961031e366004611f27565b610ee7565b610336610331366004611e3c565b610f18565b6040516102359190611f49565b60015460ff16610229565b600254610289565b610336610364366004611e3c565b610f7a565b600454610289565b610251610fda565b610251610387366004611fb1565b610fed565b61025161039a366004611dba565b611362565b600354610289565b6102296103b5366004611e3c565b60056020526000908152604090205460ff1681565b6102296103d8366004611e71565b61151c565b610289603c81565b610289600081565b6102896103fb366004611ffe565b60096020526000908152604090205481565b61033661041b366004611e3c565b611545565b61043361042e366004611e3c565b6115a5565b604080519215158352602083019190915201610235565b6102897f48404ec5122cfef2c4b0b727fa211cfb1e815e1b19d5c56f7d3cc0c616120a2881565b610289606481565b610251610487366004611e71565b61166d565b61049f61049a366004611e3c565b611692565b604080519788526001600160a01b0390961660208801529486019390935260019190910b606085015261ffff90811660808501521660a083015260c082015260e001610235565b6104f96104f4366004611e3c565b6116f9565b60405161023596959493929190612019565b6102897f9fdd832c63a06cff8edefff7231d8026fd177377608db1841f7c881716ea19bc81565b6102897f7c6181838a71a779e445600d4c6ecbe16bacf2b3c5bda69c29fada66d1b645d181565b610289610567366004611f27565b61185f565b61028961057a366004611f27565b61187b565b60006001600160e01b03198216637965db0b60e01b14806105b057506301ffc9a760e01b6001600160e01b03198316145b92915050565b7f48404ec5122cfef2c4b0b727fa211cfb1e815e1b19d5c56f7d3cc0c616120a286105e081611897565b6105e86118a1565b87606481111561063f5760405162461bcd60e51b815260206004820152601a60248201527f42617463682073697a652065786365656473206d6178696d756d00000000000060448201526064015b60405180910390fd5b808714158061064e5750808514155b806106595750808314155b156106775760405163512509d360e11b815260040160405180910390fd5b3360009081526009602052604090205461069390603c9061206e565b4210156106db5760405162461bcd60e51b8152602060048201526016602482015275436f6f6c646f776e20706572696f642061637469766560501b6044820152606401610636565b3360009081526009602052604081204290555b81811015610b75576103e887878381811061070b5761070b61208f565b905060200201602081019061072091906120a5565b61ffff16118061075b57506103e88585838181106107405761074061208f565b905060200201602081019061075591906120a5565b61ffff16115b156107795760405163043e24f760e51b815260040160405180910390fd5b600042338d8d8581811061078f5761078f61208f565b905060200201358c8c868181106107a8576107a861208f565b90506020020160208101906107bd91906120c0565b8b8b878181106107cf576107cf61208f565b90506020020160208101906107e491906120a5565b8a8a888181106107f6576107f661208f565b905060200201602081019061080b91906120a5565b87604051602001610873979695949392919096875260609590951b6bffffffffffffffffffffffff19166020870152603486019390935260f091821b6054860152811b6001600160f01b0319908116605686015291901b166058830152605a820152607a0190565b60408051601f1981840301815291815281516020928301206000818152600590935291205490915060ff16156108bc57604051632ca15f0960e01b815260040160405180910390fd5b600081815260056020908152604091829020805460ff1916600117905560028054835160e08101855242815233938101939093529290919081018f8f878181106109085761090861208f565b9050602002013581526020018d8d878181106109265761092661208f565b905060200201602081019061093b91906120c0565b60010b81526020018b8b878181106109555761095561208f565b905060200201602081019061096a91906120a5565b61ffff1681526020018989878181106109855761098561208f565b905060200201602081019061099a91906120a5565b61ffff90811682526020918201869052835460018181018655600095865283862085516005909302019182559284015192810180546001600160a01b039094166001600160a01b031990941693909317909255604083015160028301556060830151600383018054608086015160a087015185166401000000000265ffff0000000019918616620100000263ffffffff199093169490951693909317179190911691909117905560c0909101516004909101556006908e8e86818110610a6257610a6261208f565b602090810292909201358352508181019290925260400160009081208054600181018255908252919020018190558c8c84818110610aa257610aa261208f565b90506020020135336001600160a01b0316827fd1ffbc628ab31d410540a5216a77617b6437dd8315e6d6eb848dc25b4825e40042604051610ae591815260200190565b60405180910390a4610b6b818c8c86818110610b0357610b0361208f565b9050602002016020810190610b1891906120c0565b8b8b87818110610b2a57610b2a61208f565b9050602002016020810190610b3f91906120a5565b8a8a88818110610b5157610b5161208f565b9050602002016020810190610b6691906120a5565b6118c7565b50506001016106ee565b5050505050505050505050565b7f7c6181838a71a779e445600d4c6ecbe16bacf2b3c5bda69c29fada66d1b645d1610bac81611897565b610bb46118a1565b6000600380549050905060036040518060a001604052808a815260200189898080601f0160208091040260200160405190810160405280939291908181526020018383808284376000920191909152505050908252504260208083019190915260408051601f8a01839004830281018301825289815292019190899089908190840183828082843760009201829052509385525050506020918201879052835460018181018655948252908290208351600590920201908155908201519192909190820190610c839082612179565b506040820151600282015560608201516003820190610ca29082612179565b506080919091015160049091015560008881526007602090815260408083208054600181018255908452919092200182905551889082907fb414845a4cb1995a4700e6ebfd4967cd28d1ab8c31461aa6da72fefc4cd720a690610d0a908b908b904290612239565b60405180910390a35050505050505050565b600082815260208190526040902060010154610d3781611897565b610d418383611a4d565b50505050565b6001600160a01b0381163314610d705760405163334bd91960e11b815260040160405180910390fd5b610d7a8282611adf565b505050565b6000610d8a81611897565b610d92611b4a565b50565b60038181548110610da557600080fd5b60009182526020909120600590910201805460018201805491935090610dca906120f1565b80601f0160208091040260200160405190810160405280929190818152602001828054610df6906120f1565b8015610e435780601f10610e1857610100808354040283529160200191610e43565b820191906000526020600020905b815481529060010190602001808311610e2657829003601f168201915b505050505090806002015490806003018054610e5e906120f1565b80601f0160208091040260200160405190810160405280929190818152602001828054610e8a906120f1565b8015610ed75780601f10610eac57610100808354040283529160200191610ed7565b820191906000526020600020905b815481529060010190602001808311610eba57829003601f168201915b5050505050908060040154905085565b60086020528160005260406000208181548110610f0357600080fd5b90600052602060002001600091509150505481565b600081815260066020908152604091829020805483518184028101840190945280845260609392830182828015610f6e57602002820191906000526020600020905b815481526020019060010190808311610f5a575b50505050509050919050565b600081815260086020908152604091829020805483518184028101840190945280845260609392830182828015610f6e5760200282019190600052602060002090815481526020019060010190808311610f5a5750505050509050919050565b6000610fe581611897565b610d92611b9c565b7f48404ec5122cfef2c4b0b727fa211cfb1e815e1b19d5c56f7d3cc0c616120a2861101781611897565b61101f6118a1565b3360009081526009602052604090205461103b90603c9061206e565b4210156110835760405162461bcd60e51b8152602060048201526016602482015275436f6f6c646f776e20706572696f642061637469766560501b6044820152606401610636565b3360009081526009602052604090204290556103e861ffff841611806110ae57506103e88261ffff16115b156110cc5760405163043e24f760e51b815260040160405180910390fd5b604080514260208201526bffffffffffffffffffffffff193360601b16918101919091526054810186905260f085811b60748301526001600160f01b031985821b811660768401529084901b166078820152600090607a0160408051601f1981840301815291815281516020928301206000818152600590935291205490915060ff161561116d57604051632ca15f0960e01b815260040160405180910390fd5b60016005600083815260200190815260200160002060006101000a81548160ff0219169083151502179055506000600280549050905060026040518060e00160405280428152602001336001600160a01b031681526020018981526020018860010b81526020018761ffff1681526020018661ffff1681526020018481525090806001815401808255809150506001900390600052602060002090600502016000909190919091506000820151816000015560208201518160010160006101000a8154816001600160a01b0302191690836001600160a01b031602179055506040820151816002015560608201518160030160006101000a81548161ffff021916908360010b61ffff16021790555060808201518160030160026101000a81548161ffff021916908361ffff16021790555060a08201518160030160046101000a81548161ffff021916908361ffff16021790555060c0820151816004015550506006600088815260200190815260200160002081908060018154018082558091505060019003906000526020600020016000909190919091505586336001600160a01b0316827fd1ffbc628ab31d410540a5216a77617b6437dd8315e6d6eb848dc25b4825e4004260405161134591815260200190565b60405180910390a4611359818787876118c7565b50505050505050565b7f9fdd832c63a06cff8edefff7231d8026fd177377608db1841f7c881716ea19bc61138c81611897565b6113946118a1565b6000600480549050905060046040518060c001604052808a815260200189898080601f01602080910402602001604051908101604052809392919081815260200183838082843760009201919091525050509082525042602080830191909152336040808401919091528051601f8a018390048302810183019091528881526060909201919089908990819084018382808284376000920182905250938552505050602091820187905283546001818101865594825290829020835160069092020190815590820151919290919082019061146f9082612179565b506040820151600282015560608201516003820180546001600160a01b0319166001600160a01b03909216919091179055608082015160048201906114b49082612179565b5060a0919091015160059091015560008881526008602090815260408083208054600181018255908452919092200182905551889082907f458336fd7c5948d16ae76ce225c87f858bd744b40d82ddc8272ed4eadeca651590610d0a908b908b904290612239565b6000918252602082815260408084206001600160a01b0393909316845291905290205460ff1690565b600081815260076020908152604091829020805483518184028101840190945280845260609392830182828015610f6e5760200282019190600052602060002090815481526020019060010190808311610f5a5750505050509050919050565b600254600090819083106115cc5760405163447875bf60e11b815260040160405180910390fd5b6000600284815481106115e1576115e161208f565b600091825260208083206040805160e0810182526005948502909201805483526001808201546001600160a01b03168486015260028201548484015260038201549081900b606085015261ffff620100008204811660808601526401000000009091041660a08401526004015460c09092018290528185529290915291205460ff169590945092505050565b60008281526020819052604090206001015461168881611897565b610d418383611adf565b600281815481106116a257600080fd5b600091825260209091206005909102018054600180830154600284015460038501546004909501549395506001600160a01b039091169390929181900b9161ffff6201000083048116926401000000009004169087565b6004818154811061170957600080fd5b6000918252602090912060069091020180546001820180549193509061172e906120f1565b80601f016020809104026020016040519081016040528092919081815260200182805461175a906120f1565b80156117a75780601f1061177c576101008083540402835291602001916117a7565b820191906000526020600020905b81548152906001019060200180831161178a57829003601f168201915b5050505060028301546003840154600485018054949592946001600160a01b039092169350906117d6906120f1565b80601f0160208091040260200160405190810160405280929190818152602001828054611802906120f1565b801561184f5780601f106118245761010080835404028352916020019161184f565b820191906000526020600020905b81548152906001019060200180831161183257829003601f168201915b5050505050908060050154905086565b60066020528160005260406000208181548110610f0357600080fd5b60076020528160005260406000208181548110610f0357600080fd5b610d928133611bd7565b60015460ff16156118c55760405163d93c066560e01b815260040160405180910390fd5b565b6063198360010b12806118de57506102588360010b135b1561194c57336001600160a01b0316847f95e8be25ce99d5e12cac2015ee3df3941fe93667bc5bb68c81b82a3f7ee9ed746040516119439060208082526013908201527245585452454d455f54454d504552415455524560681b604082015260600190565b60405180910390a35b60328261ffff16108061196457506103b68261ffff16115b156119d457336001600160a01b0316847f95e8be25ce99d5e12cac2015ee3df3941fe93667bc5bb68c81b82a3f7ee9ed746040516119cb9060208082526015908201527445585452454d455f534f494c5f4d4f49535455524560581b604082015260600190565b60405180910390a35b6103b68161ffff161115610d4157336001600160a01b0316847f95e8be25ce99d5e12cac2015ee3df3941fe93667bc5bb68c81b82a3f7ee9ed74604051611a3f9060208082526010908201526f45585452454d455f48554d494449545960801b604082015260600190565b60405180910390a350505050565b6000611a59838361151c565b611ad7576000838152602081815260408083206001600160a01b03861684529091529020805460ff19166001179055611a8f3390565b6001600160a01b0316826001600160a01b0316847f2f8788117e7eff1d82e926ec794901d17c78024a50270940304540a733656f0d60405160405180910390a45060016105b0565b5060006105b0565b6000611aeb838361151c565b15611ad7576000838152602081815260408083206001600160a01b0386168085529252808320805460ff1916905551339286917ff6391f5c32d9c69d2a47ea670b442974b53935d1edc7fd64eb21e047a839171b9190a45060016105b0565b611b52611c14565b6001805460ff191690557f5db9ee0a495bf2e6ff9c91a7834c1ba4fdd244a5e8aa4e537bd38aeae4b073aa335b6040516001600160a01b03909116815260200160405180910390a1565b611ba46118a1565b6001805460ff1916811790557f62e78cea01bee320cd4e420270b5ea74000d11b0c9f74754ebdbfc544b05a25833611b7f565b611be1828261151c565b611c105760405163e2517d3f60e01b81526001600160a01b038216600482015260248101839052604401610636565b5050565b60015460ff166118c557604051638dfc202b60e01b815260040160405180910390fd5b600060208284031215611c4957600080fd5b81356001600160e01b031981168114611c6157600080fd5b9392505050565b60008083601f840112611c7a57600080fd5b50813567ffffffffffffffff811115611c9257600080fd5b6020830191508360208260051b8501011115611cad57600080fd5b9250929050565b6000806000806000806000806080898b031215611cd057600080fd5b883567ffffffffffffffff80821115611ce857600080fd5b611cf48c838d01611c68565b909a50985060208b0135915080821115611d0d57600080fd5b611d198c838d01611c68565b909850965060408b0135915080821115611d3257600080fd5b611d3e8c838d01611c68565b909650945060608b0135915080821115611d5757600080fd5b50611d648b828c01611c68565b999c989b5096995094979396929594505050565b60008083601f840112611d8a57600080fd5b50813567ffffffffffffffff811115611da257600080fd5b602083019150836020828501011115611cad57600080fd5b60008060008060008060808789031215611dd357600080fd5b86359550602087013567ffffffffffffffff80821115611df257600080fd5b611dfe8a838b01611d78565b90975095506040890135915080821115611e1757600080fd5b50611e2489828a01611d78565b979a9699509497949695606090950135949350505050565b600060208284031215611e4e57600080fd5b5035919050565b80356001600160a01b0381168114611e6c57600080fd5b919050565b60008060408385031215611e8457600080fd5b82359150611e9460208401611e55565b90509250929050565b6000815180845260005b81811015611ec357602081850181015186830182015201611ea7565b506000602082860101526020601f19601f83011685010191505092915050565b85815260a060208201526000611efc60a0830187611e9d565b8560408401528281036060840152611f148186611e9d565b9150508260808301529695505050505050565b60008060408385031215611f3a57600080fd5b50508035926020909101359150565b6020808252825182820181905260009190848201906040850190845b81811015611f8157835183529284019291840191600101611f65565b50909695505050505050565b8035600181900b8114611e6c57600080fd5b803561ffff81168114611e6c57600080fd5b60008060008060808587031215611fc757600080fd5b84359350611fd760208601611f8d565b9250611fe560408601611f9f565b9150611ff360608601611f9f565b905092959194509250565b60006020828403121561201057600080fd5b611c6182611e55565b86815260c06020820152600061203260c0830188611e9d565b604083018790526001600160a01b0386166060840152828103608084015261205a8186611e9d565b9150508260a0830152979650505050505050565b808201808211156105b057634e487b7160e01b600052601160045260246000fd5b634e487b7160e01b600052603260045260246000fd5b6000602082840312156120b757600080fd5b611c6182611f9f565b6000602082840312156120d257600080fd5b611c6182611f8d565b634e487b7160e01b600052604160045260246000fd5b600181811c9082168061210557607f821691505b60208210810361212557634e487b7160e01b600052602260045260246000fd5b50919050565b601f821115610d7a57600081815260208120601f850160051c810160208610156121525750805b601f850160051c820191505b818110156121715782815560010161215e565b505050505050565b815167ffffffffffffffff811115612193576121936120db565b6121a7816121a184546120f1565b8461212b565b602080601f8311600181146121dc57600084156121c45750858301515b600019600386901b1c1916600185901b178555612171565b600085815260208120601f198616915b8281101561220b578886015182559484019460019091019084016121ec565b50858210156122295787850151600019600388901b60f8161c191681555b5050505050600190811b01905550565b604081528260408201528284606083013760006060848301015260006060601f19601f860116830101905082602083015294935050505056fea264697066735822122093e688cb7d1b583db40ff89ed739e162d04fce882d6f6ad85707234830aae26964736f6c63430008140033","opcodes":"PUSH1 0x80 PUSH1 0x40 MSTORE CALLVALUE DUP1 ISZERO PUSH3 0x11 JUMPI PUSH1 0x0 DUP1 REVERT JUMPDEST POP PUSH3 0x1F PUSH1 0x0 CALLER PUSH3 0xDA JUMP JUMPDEST POP PUSH3 0x4C PUSH32 0x48404EC5122CFEF2C4B0B727FA211CFB1E815E1B19D5C56F7D3CC0C616120A28 CALLER PUSH3 0xDA JUMP JUMPDEST POP PUSH3 0x79 PUSH32 0x7C6181838A71A779E445600D4C6ECBE16BACF2B3C5BDA69C29FADA66D1B645D1 CALLER PUSH3 0xDA JUMP JUMPDEST POP PUSH3 0xA6 PUSH32 0x7765BFE615AAB9FB9A16BD4C5C9B353F39DAE79CA7DA86094B0A74EA8A89E59A CALLER PUSH3 0xDA JUMP JUMPDEST POP PUSH3 0xD3 PUSH32 0x9FDD832C63A06CFF8EDEFFF7231D8026FD177377608DB1841F7C881716EA19BC CALLER PUSH3 0xDA JUMP JUMPDEST POP PUSH3 0x189 JUMP JUMPDEST PUSH1 0x0 DUP3 DUP2 MSTORE PUSH1 0x20 DUP2 DUP2 MSTORE PUSH1 0x40 DUP1 DUP4 KECCAK256 PUSH1 0x1 PUSH1 0x1 PUSH1 0xA0 SHL SUB DUP6 AND DUP5 MSTORE SWAP1 SWAP2 MSTORE DUP2 KECCAK256 SLOAD PUSH1 0xFF AND PUSH3 0x17F JUMPI PUSH1 0x0 DUP4 DUP2 MSTORE PUSH1 0x20 DUP2 DUP2 MSTORE PUSH1 0x40 DUP1 DUP4 KECCAK256 PUSH1 0x1 PUSH1 0x1 PUSH1 0xA0 SHL SUB DUP7 AND DUP5 MSTORE SWAP1 SWAP2 MSTORE SWAP1 KECCAK256 DUP1 SLOAD PUSH1 0xFF NOT AND PUSH1 0x1 OR SWAP1 SSTORE PUSH3 0x136 CALLER SWAP1 JUMP JUMPDEST PUSH1 0x1 PUSH1 0x1 PUSH1 0xA0 SHL SUB AND DUP3 PUSH1 0x1 PUSH1 0x1 PUSH1 0xA0 SHL SUB AND DUP5 PUSH32 0x2F8788117E7EFF1D82E926EC794901D17C78024A50270940304540A733656F0D PUSH1 0x40 MLOAD PUSH1 0x40 MLOAD DUP1 SWAP2 SUB SWAP1 LOG4 POP PUSH1 0x1 PUSH3 0x183 JUMP JUMPDEST POP PUSH1 0x0 JUMPDEST SWAP3 SWAP2 POP POP JUMP JUMPDEST PUSH2 0x22A8 DUP1 PUSH3 0x199 PUSH1 0x0 CODECOPY PUSH1 0x0 RETURN INVALID PUSH1 0x80 PUSH1 0x40 MSTORE CALLVALUE DUP1 ISZERO PUSH2 0x10 JUMPI PUSH1 0x0 DUP1 REVERT JUMPDEST POP PUSH1 0x4 CALLDATASIZE LT PUSH2 0x211 JUMPI PUSH1 0x0 CALLDATALOAD PUSH1 0xE0 SHR DUP1 PUSH4 0x88C36035 GT PUSH2 0x125 JUMPI DUP1 PUSH4 0xB0E26D70 GT PUSH2 0xAD JUMPI DUP1 PUSH4 0xF2410EF7 GT PUSH2 0x7C JUMPI DUP1 PUSH4 0xF2410EF7 EQ PUSH2 0x4E6 JUMPI DUP1 PUSH4 0xF24CB034 EQ PUSH2 0x50B JUMPI DUP1 PUSH4 0xF3943970 EQ PUSH2 0x532 JUMPI DUP1 PUSH4 0xFAF1FBA6 EQ PUSH2 0x559 JUMPI DUP1 PUSH4 0xFDA7503B EQ PUSH2 0x56C JUMPI PUSH1 0x0 DUP1 REVERT JUMPDEST DUP1 PUSH4 0xB0E26D70 EQ PUSH2 0x44A JUMPI DUP1 PUSH4 0xCFDBF254 EQ PUSH2 0x471 JUMPI DUP1 PUSH4 0xD547741F EQ PUSH2 0x479 JUMPI DUP1 PUSH4 0xD5DA886D EQ PUSH2 0x48C JUMPI PUSH1 0x0 DUP1 REVERT JUMPDEST DUP1 PUSH4 0xA0EC242A GT PUSH2 0xF4 JUMPI DUP1 PUSH4 0xA0EC242A EQ PUSH2 0x3DD JUMPI DUP1 PUSH4 0xA217FDDF EQ PUSH2 0x3E5 JUMPI DUP1 PUSH4 0xA4365476 EQ PUSH2 0x3ED JUMPI DUP1 PUSH4 0xA9BF7419 EQ PUSH2 0x40D JUMPI DUP1 PUSH4 0xAAF10752 EQ PUSH2 0x420 JUMPI PUSH1 0x0 DUP1 REVERT JUMPDEST DUP1 PUSH4 0x88C36035 EQ PUSH2 0x38C JUMPI DUP1 PUSH4 0x8E07DD94 EQ PUSH2 0x39F JUMPI DUP1 PUSH4 0x8EA768FE EQ PUSH2 0x3A7 JUMPI DUP1 PUSH4 0x91D14854 EQ PUSH2 0x3CA JUMPI PUSH1 0x0 DUP1 REVERT JUMPDEST DUP1 PUSH4 0x50F2AAB3 GT PUSH2 0x1A8 JUMPI DUP1 PUSH4 0x6ED71357 GT PUSH2 0x177 JUMPI DUP1 PUSH4 0x6ED71357 EQ PUSH2 0x34E JUMPI DUP1 PUSH4 0x72067FE9 EQ PUSH2 0x356 JUMPI DUP1 PUSH4 0x776CCE90 EQ PUSH2 0x369 JUMPI DUP1 PUSH4 0x8456CB59 EQ PUSH2 0x371 JUMPI DUP1 PUSH4 0x864B6485 EQ PUSH2 0x379 JUMPI PUSH1 0x0 DUP1 REVERT JUMPDEST DUP1 PUSH4 0x50F2AAB3 EQ PUSH2 0x2E9 JUMPI DUP1 PUSH4 0x56C70ED6 EQ PUSH2 0x310 JUMPI DUP1 PUSH4 0x58CFE812 EQ PUSH2 0x323 JUMPI DUP1 PUSH4 0x5C975ABB EQ PUSH2 0x343 JUMPI PUSH1 0x0 DUP1 REVERT JUMPDEST DUP1 PUSH4 0x2F2FF15D GT PUSH2 0x1E4 JUMPI DUP1 PUSH4 0x2F2FF15D EQ PUSH2 0x297 JUMPI DUP1 PUSH4 0x36568ABE EQ PUSH2 0x2AA JUMPI DUP1 PUSH4 0x3F4BA83A EQ PUSH2 0x2BD JUMPI DUP1 PUSH4 0x4688F7DB EQ PUSH2 0x2C5 JUMPI PUSH1 0x0 DUP1 REVERT JUMPDEST DUP1 PUSH4 0x1FFC9A7 EQ PUSH2 0x216 JUMPI DUP1 PUSH4 0xD8D976C EQ PUSH2 0x23E JUMPI DUP1 PUSH4 0xFAA74E5 EQ PUSH2 0x253 JUMPI DUP1 PUSH4 0x248A9CA3 EQ PUSH2 0x266 JUMPI JUMPDEST PUSH1 0x0 DUP1 REVERT JUMPDEST PUSH2 0x229 PUSH2 0x224 CALLDATASIZE PUSH1 0x4 PUSH2 0x1C37 JUMP JUMPDEST PUSH2 0x57F JUMP JUMPDEST PUSH1 0x40 MLOAD SWAP1 ISZERO ISZERO DUP2 MSTORE PUSH1 0x20 ADD JUMPDEST PUSH1 0x40 MLOAD DUP1 SWAP2 SUB SWAP1 RETURN JUMPDEST PUSH2 0x251 PUSH2 0x24C CALLDATASIZE PUSH1 0x4 PUSH2 0x1CB4 JUMP JUMPDEST PUSH2 0x5B6 JUMP JUMPDEST STOP JUMPDEST PUSH2 0x251 PUSH2 0x261 CALLDATASIZE PUSH1 0x4 PUSH2 0x1DBA JUMP JUMPDEST PUSH2 0xB82 JUMP JUMPDEST PUSH2 0x289 PUSH2 0x274 CALLDATASIZE PUSH1 0x4 PUSH2 0x1E3C JUMP JUMPDEST PUSH1 0x0 SWAP1 DUP2 MSTORE PUSH1 0x20 DUP2 SWAP1 MSTORE PUSH1 0x40 SWAP1 KECCAK256 PUSH1 0x1 ADD SLOAD SWAP1 JUMP JUMPDEST PUSH1 0x40 MLOAD SWAP1 DUP2 MSTORE PUSH1 0x20 ADD PUSH2 0x235 JUMP JUMPDEST PUSH2 0x251 PUSH2 0x2A5 CALLDATASIZE PUSH1 0x4 PUSH2 0x1E71 JUMP JUMPDEST PUSH2 0xD1C JUMP JUMPDEST PUSH2 0x251 PUSH2 0x2B8 CALLDATASIZE PUSH1 0x4 PUSH2 0x1E71 JUMP JUMPDEST PUSH2 0xD47 JUMP JUMPDEST PUSH2 0x251 PUSH2 0xD7F JUMP JUMPDEST PUSH2 0x2D8 PUSH2 0x2D3 CALLDATASIZE PUSH1 0x4 PUSH2 0x1E3C JUMP JUMPDEST PUSH2 0xD95 JUMP JUMPDEST PUSH1 0x40 MLOAD PUSH2 0x235 SWAP6 SWAP5 SWAP4 SWAP3 SWAP2 SWAP1 PUSH2 0x1EE3 JUMP JUMPDEST PUSH2 0x289 PUSH32 0x7765BFE615AAB9FB9A16BD4C5C9B353F39DAE79CA7DA86094B0A74EA8A89E59A DUP2 JUMP JUMPDEST PUSH2 0x289 PUSH2 0x31E CALLDATASIZE PUSH1 0x4 PUSH2 0x1F27 JUMP JUMPDEST PUSH2 0xEE7 JUMP JUMPDEST PUSH2 0x336 PUSH2 0x331 CALLDATASIZE PUSH1 0x4 PUSH2 0x1E3C JUMP JUMPDEST PUSH2 0xF18 JUMP JUMPDEST PUSH1 0x40 MLOAD PUSH2 0x235 SWAP2 SWAP1 PUSH2 0x1F49 JUMP JUMPDEST PUSH1 0x1 SLOAD PUSH1 0xFF AND PUSH2 0x229 JUMP JUMPDEST PUSH1 0x2 SLOAD PUSH2 0x289 JUMP JUMPDEST PUSH2 0x336 PUSH2 0x364 CALLDATASIZE PUSH1 0x4 PUSH2 0x1E3C JUMP JUMPDEST PUSH2 0xF7A JUMP JUMPDEST PUSH1 0x4 SLOAD PUSH2 0x289 JUMP JUMPDEST PUSH2 0x251 PUSH2 0xFDA JUMP JUMPDEST PUSH2 0x251 PUSH2 0x387 CALLDATASIZE PUSH1 0x4 PUSH2 0x1FB1 JUMP JUMPDEST PUSH2 0xFED JUMP JUMPDEST PUSH2 0x251 PUSH2 0x39A CALLDATASIZE PUSH1 0x4 PUSH2 0x1DBA JUMP JUMPDEST PUSH2 0x1362 JUMP JUMPDEST PUSH1 0x3 SLOAD PUSH2 0x289 JUMP JUMPDEST PUSH2 0x229 PUSH2 0x3B5 CALLDATASIZE PUSH1 0x4 PUSH2 0x1E3C JUMP JUMPDEST PUSH1 0x5 PUSH1 0x20 MSTORE PUSH1 0x0 SWAP1 DUP2 MSTORE PUSH1 0x40 SWAP1 KECCAK256 SLOAD PUSH1 0xFF AND DUP2 JUMP JUMPDEST PUSH2 0x229 PUSH2 0x3D8 CALLDATASIZE PUSH1 0x4 PUSH2 0x1E71 JUMP JUMPDEST PUSH2 0x151C JUMP JUMPDEST PUSH2 0x289 PUSH1 0x3C DUP2 JUMP JUMPDEST PUSH2 0x289 PUSH1 0x0 DUP2 JUMP JUMPDEST PUSH2 0x289 PUSH2 0x3FB CALLDATASIZE PUSH1 0x4 PUSH2 0x1FFE JUMP JUMPDEST PUSH1 0x9 PUSH1 0x20 MSTORE PUSH1 0x0 SWAP1 DUP2 MSTORE PUSH1 0x40 SWAP1 KECCAK256 SLOAD DUP2 JUMP JUMPDEST PUSH2 0x336 PUSH2 0x41B CALLDATASIZE PUSH1 0x4 PUSH2 0x1E3C JUMP JUMPDEST PUSH2 0x1545 JUMP JUMPDEST PUSH2 0x433 PUSH2 0x42E CALLDATASIZE PUSH1 0x4 PUSH2 0x1E3C JUMP JUMPDEST PUSH2 0x15A5 JUMP JUMPDEST PUSH1 0x40 DUP1 MLOAD SWAP3 ISZERO ISZERO DUP4 MSTORE PUSH1 0x20 DUP4 ADD SWAP2 SWAP1 SWAP2 MSTORE ADD PUSH2 0x235 JUMP JUMPDEST PUSH2 0x289 PUSH32 0x48404EC5122CFEF2C4B0B727FA211CFB1E815E1B19D5C56F7D3CC0C616120A28 DUP2 JUMP JUMPDEST PUSH2 0x289 PUSH1 0x64 DUP2 JUMP JUMPDEST PUSH2 0x251 PUSH2 0x487 CALLDATASIZE PUSH1 0x4 PUSH2 0x1E71 JUMP JUMPDEST PUSH2 0x166D JUMP JUMPDEST PUSH2 0x49F PUSH2 0x49A CALLDATASIZE PUSH1 0x4 PUSH2 0x1E3C JUMP JUMPDEST PUSH2 0x1692 JUMP JUMPDEST PUSH1 0x40 DUP1 MLOAD SWAP8 DUP9 MSTORE PUSH1 0x1 PUSH1 0x1 PUSH1 0xA0 SHL SUB SWAP1 SWAP7 AND PUSH1 0x20 DUP9 ADD MSTORE SWAP5 DUP7 ADD SWAP4 SWAP1 SWAP4 MSTORE PUSH1 0x1 SWAP2 SWAP1 SWAP2 SIGNEXTEND PUSH1 0x60 DUP6 ADD MSTORE PUSH2 0xFFFF SWAP1 DUP2 AND PUSH1 0x80 DUP6 ADD MSTORE AND PUSH1 0xA0 DUP4 ADD MSTORE PUSH1 0xC0 DUP3 ADD MSTORE PUSH1 0xE0 ADD PUSH2 0x235 JUMP JUMPDEST PUSH2 0x4F9 PUSH2 0x4F4 CALLDATASIZE PUSH1 0x4 PUSH2 0x1E3C JUMP JUMPDEST PUSH2 0x16F9 JUMP JUMPDEST PUSH1 0x40 MLOAD PUSH2 0x235 SWAP7 SWAP6 SWAP5 SWAP4 SWAP3 SWAP2 SWAP1 PUSH2 0x2019 JUMP JUMPDEST PUSH2 0x289 PUSH32 0x9FDD832C63A06CFF8EDEFFF7231D8026FD177377608DB1841F7C881716EA19BC DUP2 JUMP JUMPDEST PUSH2 0x289 PUSH32 0x7C6181838A71A779E445600D4C6ECBE16BACF2B3C5BDA69C29FADA66D1B645D1 DUP2 JUMP JUMPDEST PUSH2 0x289 PUSH2 0x567 CALLDATASIZE PUSH1 0x4 PUSH2 0x1F27 JUMP JUMPDEST PUSH2 0x185F JUMP JUMPDEST PUSH2 0x289 PUSH2 0x57A CALLDATASIZE PUSH1 0x4 PUSH2 0x1F27 JUMP JUMPDEST PUSH2 0x187B JUMP JUMPDEST PUSH1 0x0 PUSH1 0x1 PUSH1 0x1 PUSH1 0xE0 SHL SUB NOT DUP3 AND PUSH4 0x7965DB0B PUSH1 0xE0 SHL EQ DUP1 PUSH2 0x5B0 JUMPI POP PUSH4 0x1FFC9A7 PUSH1 0xE0 SHL PUSH1 0x1 PUSH1 0x1 PUSH1 0xE0 SHL SUB NOT DUP4 AND EQ JUMPDEST SWAP3 SWAP2 POP POP JUMP JUMPDEST PUSH32 0x48404EC5122CFEF2C4B0B727FA211CFB1E815E1B19D5C56F7D3CC0C616120A28 PUSH2 0x5E0 DUP2 PUSH2 0x1897 JUMP JUMPDEST PUSH2 0x5E8 PUSH2 0x18A1 JUMP JUMPDEST DUP8 PUSH1 0x64 DUP2 GT ISZERO PUSH2 0x63F JUMPI PUSH1 0x40 MLOAD PUSH3 0x461BCD PUSH1 0xE5 SHL DUP2 MSTORE PUSH1 0x20 PUSH1 0x4 DUP3 ADD MSTORE PUSH1 0x1A PUSH1 0x24 DUP3 ADD MSTORE PUSH32 0x42617463682073697A652065786365656473206D6178696D756D000000000000 PUSH1 0x44 DUP3 ADD MSTORE PUSH1 0x64 ADD JUMPDEST PUSH1 0x40 MLOAD DUP1 SWAP2 SUB SWAP1 REVERT JUMPDEST DUP1 DUP8 EQ ISZERO DUP1 PUSH2 0x64E JUMPI POP DUP1 DUP6 EQ ISZERO JUMPDEST DUP1 PUSH2 0x659 JUMPI POP DUP1 DUP4 EQ ISZERO JUMPDEST ISZERO PUSH2 0x677 JUMPI PUSH1 0x40 MLOAD PUSH4 0x512509D3 PUSH1 0xE1 SHL DUP2 MSTORE PUSH1 0x4 ADD PUSH1 0x40 MLOAD DUP1 SWAP2 SUB SWAP1 REVERT JUMPDEST CALLER PUSH1 0x0 SWAP1 DUP2 MSTORE PUSH1 0x9 PUSH1 0x20 MSTORE PUSH1 0x40 SWAP1 KECCAK256 SLOAD PUSH2 0x693 SWAP1 PUSH1 0x3C SWAP1 PUSH2 0x206E JUMP JUMPDEST TIMESTAMP LT ISZERO PUSH2 0x6DB JUMPI PUSH1 0x40 MLOAD PUSH3 0x461BCD PUSH1 0xE5 SHL DUP2 MSTORE PUSH1 0x20 PUSH1 0x4 DUP3 ADD MSTORE PUSH1 0x16 PUSH1 0x24 DUP3 ADD MSTORE PUSH22 0x436F6F6C646F776E20706572696F6420616374697665 PUSH1 0x50 SHL PUSH1 0x44 DUP3 ADD MSTORE PUSH1 0x64 ADD PUSH2 0x636 JUMP JUMPDEST CALLER PUSH1 0x0 SWAP1 DUP2 MSTORE PUSH1 0x9 PUSH1 0x20 MSTORE PUSH1 0x40 DUP2 KECCAK256 TIMESTAMP SWAP1 SSTORE JUMPDEST DUP2 DUP2 LT ISZERO PUSH2 0xB75 JUMPI PUSH2 0x3E8 DUP8 DUP8 DUP4 DUP2 DUP2 LT PUSH2 0x70B JUMPI PUSH2 0x70B PUSH2 0x208F JUMP JUMPDEST SWAP1 POP PUSH1 0x20 MUL ADD PUSH1 0x20 DUP2 ADD SWAP1 PUSH2 0x720 SWAP2 SWAP1 PUSH2 0x20A5 JUMP JUMPDEST PUSH2 0xFFFF AND GT DUP1 PUSH2 0x75B JUMPI POP PUSH2 0x3E8 DUP6 DUP6 DUP4 DUP2 DUP2 LT PUSH2 0x740 JUMPI PUSH2 0x740 PUSH2 0x208F JUMP JUMPDEST SWAP1 POP PUSH1 0x20 MUL ADD PUSH1 0x20 DUP2 ADD SWAP1 PUSH2 0x755 SWAP2 SWAP1 PUSH2 0x20A5 JUMP JUMPDEST PUSH2 0xFFFF AND GT JUMPDEST ISZERO PUSH2 0x779 JUMPI PUSH1 0x40 MLOAD PUSH4 0x43E24F7 PUSH1 0xE5 SHL DUP2 MSTORE PUSH1 0x4 ADD PUSH1 0x40 MLOAD DUP1 SWAP2 SUB SWAP1 REVERT JUMPDEST PUSH1 0x0 TIMESTAMP CALLER DUP14 DUP14 DUP6 DUP2 DUP2 LT PUSH2 0x78F JUMPI PUSH2 0x78F PUSH2 0x208F JUMP JUMPDEST SWAP1 POP PUSH1 0x20 MUL ADD CALLDATALOAD DUP13 DUP13 DUP7 DUP2 DUP2 LT PUSH2 0x7A8 JUMPI PUSH2 0x7A8 PUSH2 0x208F JUMP JUMPDEST SWAP1 POP PUSH1 0x20 MUL ADD PUSH1 0x20 DUP2 ADD SWAP1 PUSH2 0x7BD SWAP2 SWAP1 PUSH2 0x20C0 JUMP JUMPDEST DUP12 DUP12 DUP8 DUP2 DUP2 LT PUSH2 0x7CF JUMPI PUSH2 0x7CF PUSH2 0x208F JUMP JUMPDEST SWAP1 POP PUSH1 0x20 MUL ADD PUSH1 0x20 DUP2 ADD SWAP1 PUSH2 0x7E4 SWAP2 SWAP1 PUSH2 0x20A5 JUMP JUMPDEST DUP11 DUP11 DUP9 DUP2 DUP2 LT PUSH2 0x7F6 JUMPI PUSH2 0x7F6 PUSH2 0x208F JUMP JUMPDEST SWAP1 POP PUSH1 0x20 MUL ADD PUSH1 0x20 DUP2 ADD SWAP1 PUSH2 0x80B SWAP2 SWAP1 PUSH2 0x20A5 JUMP JUMPDEST DUP8 PUSH1 0x40 MLOAD PUSH1 0x20 ADD PUSH2 0x873 SWAP8 SWAP7 SWAP6 SWAP5 SWAP4 SWAP3 SWAP2 SWAP1 SWAP7 DUP8 MSTORE PUSH1 0x60 SWAP6 SWAP1 SWAP6 SHL PUSH12 0xFFFFFFFFFFFFFFFFFFFFFFFF NOT AND PUSH1 0x20 DUP8 ADD MSTORE PUSH1 0x34 DUP7 ADD SWAP4 SWAP1 SWAP4 MSTORE PUSH1 0xF0 SWAP2 DUP3 SHL PUSH1 0x54 DUP7 ADD MSTORE DUP2 SHL PUSH1 0x1 PUSH1 0x1 PUSH1 0xF0 SHL SUB NOT SWAP1 DUP2 AND PUSH1 0x56 DUP7 ADD MSTORE SWAP2 SWAP1 SHL AND PUSH1 0x58 DUP4 ADD MSTORE PUSH1 0x5A DUP3 ADD MSTORE PUSH1 0x7A ADD SWAP1 JUMP JUMPDEST PUSH1 0x40 DUP1 MLOAD PUSH1 0x1F NOT DUP2 DUP5 SUB ADD DUP2 MSTORE SWAP2 DUP2 MSTORE DUP2 MLOAD PUSH1 0x20 SWAP3 DUP4 ADD KECCAK256 PUSH1 0x0 DUP2 DUP2 MSTORE PUSH1 0x5 SWAP1 SWAP4 MSTORE SWAP2 KECCAK256 SLOAD SWAP1 SWAP2 POP PUSH1 0xFF AND ISZERO PUSH2 0x8BC JUMPI PUSH1 0x40 MLOAD PUSH4 0x2CA15F09 PUSH1 0xE0 SHL DUP2 MSTORE PUSH1 0x4 ADD PUSH1 0x40 MLOAD DUP1 SWAP2 SUB SWAP1 REVERT JUMPDEST PUSH1 0x0 DUP2 DUP2 MSTORE PUSH1 0x5 PUSH1 0x20 SWAP1 DUP2 MSTORE PUSH1 0x40 SWAP2 DUP3 SWAP1 KECCAK256 DUP1 SLOAD PUSH1 0xFF NOT AND PUSH1 0x1 OR SWAP1 SSTORE PUSH1 0x2 DUP1 SLOAD DUP4 MLOAD PUSH1 0xE0 DUP2 ADD DUP6 MSTORE TIMESTAMP DUP2 MSTORE CALLER SWAP4 DUP2 ADD SWAP4 SWAP1 SWAP4 MSTORE SWAP3 SWAP1 SWAP2 SWAP1 DUP2 ADD DUP16 DUP16 DUP8 DUP2 DUP2 LT PUSH2 0x908 JUMPI PUSH2 0x908 PUSH2 0x208F JUMP JUMPDEST SWAP1 POP PUSH1 0x20 MUL ADD CALLDATALOAD DUP2 MSTORE PUSH1 0x20 ADD DUP14 DUP14 DUP8 DUP2 DUP2 LT PUSH2 0x926 JUMPI PUSH2 0x926 PUSH2 0x208F JUMP JUMPDEST SWAP1 POP PUSH1 0x20 MUL ADD PUSH1 0x20 DUP2 ADD SWAP1 PUSH2 0x93B SWAP2 SWAP1 PUSH2 0x20C0 JUMP JUMPDEST PUSH1 0x1 SIGNEXTEND DUP2 MSTORE PUSH1 0x20 ADD DUP12 DUP12 DUP8 DUP2 DUP2 LT PUSH2 0x955 JUMPI PUSH2 0x955 PUSH2 0x208F JUMP JUMPDEST SWAP1 POP PUSH1 0x20 MUL ADD PUSH1 0x20 DUP2 ADD SWAP1 PUSH2 0x96A SWAP2 SWAP1 PUSH2 0x20A5 JUMP JUMPDEST PUSH2 0xFFFF AND DUP2 MSTORE PUSH1 0x20 ADD DUP10 DUP10 DUP8 DUP2 DUP2 LT PUSH2 0x985 JUMPI PUSH2 0x985 PUSH2 0x208F JUMP JUMPDEST SWAP1 POP PUSH1 0x20 MUL ADD PUSH1 0x20 DUP2 ADD SWAP1 PUSH2 0x99A SWAP2 SWAP1 PUSH2 0x20A5 JUMP JUMPDEST PUSH2 0xFFFF SWAP1 DUP2 AND DUP3 MSTORE PUSH1 0x20 SWAP2 DUP3 ADD DUP7 SWAP1 MSTORE DUP4 SLOAD PUSH1 0x1 DUP2 DUP2 ADD DUP7 SSTORE PUSH1 0x0 SWAP6 DUP7 MSTORE DUP4 DUP7 KECCAK256 DUP6 MLOAD PUSH1 0x5 SWAP1 SWAP4 MUL ADD SWAP2 DUP3 SSTORE SWAP3 DUP5 ADD MLOAD SWAP3 DUP2 ADD DUP1 SLOAD PUSH1 0x1 PUSH1 0x1 PUSH1 0xA0 SHL SUB SWAP1 SWAP5 AND PUSH1 0x1 PUSH1 0x1 PUSH1 0xA0 SHL SUB NOT SWAP1 SWAP5 AND SWAP4 SWAP1 SWAP4 OR SWAP1 SWAP3 SSTORE PUSH1 0x40 DUP4 ADD MLOAD PUSH1 0x2 DUP4 ADD SSTORE PUSH1 0x60 DUP4 ADD MLOAD PUSH1 0x3 DUP4 ADD DUP1 SLOAD PUSH1 0x80 DUP7 ADD MLOAD PUSH1 0xA0 DUP8 ADD MLOAD DUP6 AND PUSH5 0x100000000 MUL PUSH6 0xFFFF00000000 NOT SWAP2 DUP7 AND PUSH3 0x10000 MUL PUSH4 0xFFFFFFFF NOT SWAP1 SWAP4 AND SWAP5 SWAP1 SWAP6 AND SWAP4 SWAP1 SWAP4 OR OR SWAP2 SWAP1 SWAP2 AND SWAP2 SWAP1 SWAP2 OR SWAP1 SSTORE PUSH1 0xC0 SWAP1 SWAP2 ADD MLOAD PUSH1 0x4 SWAP1 SWAP2 ADD SSTORE PUSH1 0x6 SWAP1 DUP15 DUP15 DUP7 DUP2 DUP2 LT PUSH2 0xA62 JUMPI PUSH2 0xA62 PUSH2 0x208F JUMP JUMPDEST PUSH1 0x20 SWAP1 DUP2 MUL SWAP3 SWAP1 SWAP3 ADD CALLDATALOAD DUP4 MSTORE POP DUP2 DUP2 ADD SWAP3 SWAP1 SWAP3 MSTORE PUSH1 0x40 ADD PUSH1 0x0 SWAP1 DUP2 KECCAK256 DUP1 SLOAD PUSH1 0x1 DUP2 ADD DUP3 SSTORE SWAP1 DUP3 MSTORE SWAP2 SWAP1 KECCAK256 ADD DUP2 SWAP1 SSTORE DUP13 DUP13 DUP5 DUP2 DUP2 LT PUSH2 0xAA2 JUMPI PUSH2 0xAA2 PUSH2 0x208F JUMP JUMPDEST SWAP1 POP PUSH1 0x20 MUL ADD CALLDATALOAD CALLER PUSH1 0x1 PUSH1 0x1 PUSH1 0xA0 SHL SUB AND DUP3 PUSH32 0xD1FFBC628AB31D410540A5216A77617B6437DD8315E6D6EB848DC25B4825E400 TIMESTAMP PUSH1 0x40 MLOAD PUSH2 0xAE5 SWAP2 DUP2 MSTORE PUSH1 0x20 ADD SWAP1 JUMP JUMPDEST PUSH1 0x40 MLOAD DUP1 SWAP2 SUB SWAP1 LOG4 PUSH2 0xB6B DUP2 DUP13 DUP13 DUP7 DUP2 DUP2 LT PUSH2 0xB03 JUMPI PUSH2 0xB03 PUSH2 0x208F JUMP JUMPDEST SWAP1 POP PUSH1 0x20 MUL ADD PUSH1 0x20 DUP2 ADD SWAP1 PUSH2 0xB18 SWAP2 SWAP1 PUSH2 0x20C0 JUMP JUMPDEST DUP12 DUP12 DUP8 DUP2 DUP2 LT PUSH2 0xB2A JUMPI PUSH2 0xB2A PUSH2 0x208F JUMP JUMPDEST SWAP1 POP PUSH1 0x20 MUL ADD PUSH1 0x20 DUP2 ADD SWAP1 PUSH2 0xB3F SWAP2 SWAP1 PUSH2 0x20A5 JUMP JUMPDEST DUP11 DUP11 DUP9 DUP2 DUP2 LT PUSH2 0xB51 JUMPI PUSH2 0xB51 PUSH2 0x208F JUMP JUMPDEST SWAP1 POP PUSH1 0x20 MUL ADD PUSH1 0x20 DUP2 ADD SWAP1 PUSH2 0xB66 SWAP2 SWAP1 PUSH2 0x20A5 JUMP JUMPDEST PUSH2 0x18C7 JUMP JUMPDEST POP POP PUSH1 0x1 ADD PUSH2 0x6EE JUMP JUMPDEST POP POP POP POP POP POP POP POP POP POP POP JUMP JUMPDEST PUSH32 0x7C6181838A71A779E445600D4C6ECBE16BACF2B3C5BDA69C29FADA66D1B645D1 PUSH2 0xBAC DUP2 PUSH2 0x1897 JUMP JUMPDEST PUSH2 0xBB4 PUSH2 0x18A1 JUMP JUMPDEST PUSH1 0x0 PUSH1 0x3 DUP1 SLOAD SWAP1 POP SWAP1 POP PUSH1 0x3 PUSH1 0x40 MLOAD DUP1 PUSH1 0xA0 ADD PUSH1 0x40 MSTORE DUP1 DUP11 DUP2 MSTORE PUSH1 0x20 ADD DUP10 DUP10 DUP1 DUP1 PUSH1 0x1F ADD PUSH1 0x20 DUP1 SWAP2 DIV MUL PUSH1 0x20 ADD PUSH1 0x40 MLOAD SWAP1 DUP2 ADD PUSH1 0x40 MSTORE DUP1 SWAP4 SWAP3 SWAP2 SWAP1 DUP2 DUP2 MSTORE PUSH1 0x20 ADD DUP4 DUP4 DUP1 DUP3 DUP5 CALLDATACOPY PUSH1 0x0 SWAP3 ADD SWAP2 SWAP1 SWAP2 MSTORE POP POP POP SWAP1 DUP3 MSTORE POP TIMESTAMP PUSH1 0x20 DUP1 DUP4 ADD SWAP2 SWAP1 SWAP2 MSTORE PUSH1 0x40 DUP1 MLOAD PUSH1 0x1F DUP11 ADD DUP4 SWAP1 DIV DUP4 MUL DUP2 ADD DUP4 ADD DUP3 MSTORE DUP10 DUP2 MSTORE SWAP3 ADD SWAP2 SWAP1 DUP10 SWAP1 DUP10 SWAP1 DUP2 SWAP1 DUP5 ADD DUP4 DUP3 DUP1 DUP3 DUP5 CALLDATACOPY PUSH1 0x0 SWAP3 ADD DUP3 SWAP1 MSTORE POP SWAP4 DUP6 MSTORE POP POP POP PUSH1 0x20 SWAP2 DUP3 ADD DUP8 SWAP1 MSTORE DUP4 SLOAD PUSH1 0x1 DUP2 DUP2 ADD DUP7 SSTORE SWAP5 DUP3 MSTORE SWAP1 DUP3 SWAP1 KECCAK256 DUP4 MLOAD PUSH1 0x5 SWAP1 SWAP3 MUL ADD SWAP1 DUP2 SSTORE SWAP1 DUP3 ADD MLOAD SWAP2 SWAP3 SWAP1 SWAP2 SWAP1 DUP3 ADD SWAP1 PUSH2 0xC83 SWAP1 DUP3 PUSH2 0x2179 JUMP JUMPDEST POP PUSH1 0x40 DUP3 ADD MLOAD PUSH1 0x2 DUP3 ADD SSTORE PUSH1 0x60 DUP3 ADD MLOAD PUSH1 0x3 DUP3 ADD SWAP1 PUSH2 0xCA2 SWAP1 DUP3 PUSH2 0x2179 JUMP JUMPDEST POP PUSH1 0x80 SWAP2 SWAP1 SWAP2 ADD MLOAD PUSH1 0x4 SWAP1 SWAP2 ADD SSTORE PUSH1 0x0 DUP9 DUP2 MSTORE PUSH1 0x7 PUSH1 0x20 SWAP1 DUP2 MSTORE PUSH1 0x40 DUP1 DUP4 KECCAK256 DUP1 SLOAD PUSH1 0x1 DUP2 ADD DUP3 SSTORE SWAP1 DUP5 MSTORE SWAP2 SWAP1 SWAP3 KECCAK256 ADD DUP3 SWAP1 SSTORE MLOAD DUP9 SWAP1 DUP3 SWAP1 PUSH32 0xB414845A4CB1995A4700E6EBFD4967CD28D1AB8C31461AA6DA72FEFC4CD720A6 SWAP1 PUSH2 0xD0A SWAP1 DUP12 SWAP1 DUP12 SWAP1 TIMESTAMP SWAP1 PUSH2 0x2239 JUMP JUMPDEST PUSH1 0x40 MLOAD DUP1 SWAP2 SUB SWAP1 LOG3 POP POP POP POP POP POP POP POP JUMP JUMPDEST PUSH1 0x0 DUP3 DUP2 MSTORE PUSH1 0x20 DUP2 SWAP1 MSTORE PUSH1 0x40 SWAP1 KECCAK256 PUSH1 0x1 ADD SLOAD PUSH2 0xD37 DUP2 PUSH2 0x1897 JUMP JUMPDEST PUSH2 0xD41 DUP4 DUP4 PUSH2 0x1A4D JUMP JUMPDEST POP POP POP POP JUMP JUMPDEST PUSH1 0x1 PUSH1 0x1 PUSH1 0xA0 SHL SUB DUP2 AND CALLER EQ PUSH2 0xD70 JUMPI PUSH1 0x40 MLOAD PUSH4 0x334BD919 PUSH1 0xE1 SHL DUP2 MSTORE PUSH1 0x4 ADD PUSH1 0x40 MLOAD DUP1 SWAP2 SUB SWAP1 REVERT JUMPDEST PUSH2 0xD7A DUP3 DUP3 PUSH2 0x1ADF JUMP JUMPDEST POP POP POP JUMP JUMPDEST PUSH1 0x0 PUSH2 0xD8A DUP2 PUSH2 0x1897 JUMP JUMPDEST PUSH2 0xD92 PUSH2 0x1B4A JUMP JUMPDEST POP JUMP JUMPDEST PUSH1 0x3 DUP2 DUP2 SLOAD DUP2 LT PUSH2 0xDA5 JUMPI PUSH1 0x0 DUP1 REVERT JUMPDEST PUSH1 0x0 SWAP2 DUP3 MSTORE PUSH1 0x20 SWAP1 SWAP2 KECCAK256 PUSH1 0x5 SWAP1 SWAP2 MUL ADD DUP1 SLOAD PUSH1 0x1 DUP3 ADD DUP1 SLOAD SWAP2 SWAP4 POP SWAP1 PUSH2 0xDCA SWAP1 PUSH2 0x20F1 JUMP JUMPDEST DUP1 PUSH1 0x1F ADD PUSH1 0x20 DUP1 SWAP2 DIV MUL PUSH1 0x20 ADD PUSH1 0x40 MLOAD SWAP1 DUP2 ADD PUSH1 0x40 MSTORE DUP1 SWAP3 SWAP2 SWAP1 DUP2 DUP2 MSTORE PUSH1 0x20 ADD DUP3 DUP1 SLOAD PUSH2 0xDF6 SWAP1 PUSH2 0x20F1 JUMP JUMPDEST DUP1 ISZERO PUSH2 0xE43 JUMPI DUP1 PUSH1 0x1F LT PUSH2 0xE18 JUMPI PUSH2 0x100 DUP1 DUP4 SLOAD DIV MUL DUP4 MSTORE SWAP2 PUSH1 0x20 ADD SWAP2 PUSH2 0xE43 JUMP JUMPDEST DUP3 ADD SWAP2 SWAP1 PUSH1 0x0 MSTORE PUSH1 0x20 PUSH1 0x0 KECCAK256 SWAP1 JUMPDEST DUP2 SLOAD DUP2 MSTORE SWAP1 PUSH1 0x1 ADD SWAP1 PUSH1 0x20 ADD DUP1 DUP4 GT PUSH2 0xE26 JUMPI DUP3 SWAP1 SUB PUSH1 0x1F AND DUP3 ADD SWAP2 JUMPDEST POP POP POP POP POP SWAP1 DUP1 PUSH1 0x2 ADD SLOAD SWAP1 DUP1 PUSH1 0x3 ADD DUP1 SLOAD PUSH2 0xE5E SWAP1 PUSH2 0x20F1 JUMP JUMPDEST DUP1 PUSH1 0x1F ADD PUSH1 0x20 DUP1 SWAP2 DIV MUL PUSH1 0x20 ADD PUSH1 0x40 MLOAD SWAP1 DUP2 ADD PUSH1 0x40 MSTORE DUP1 SWAP3 SWAP2 SWAP1 DUP2 DUP2 MSTORE PUSH1 0x20 ADD DUP3 DUP1 SLOAD PUSH2 0xE8A SWAP1 PUSH2 0x20F1 JUMP JUMPDEST DUP1 ISZERO PUSH2 0xED7 JUMPI DUP1 PUSH1 0x1F LT PUSH2 0xEAC JUMPI PUSH2 0x100 DUP1 DUP4 SLOAD DIV MUL DUP4 MSTORE SWAP2 PUSH1 0x20 ADD SWAP2 PUSH2 0xED7 JUMP JUMPDEST DUP3 ADD SWAP2 SWAP1 PUSH1 0x0 MSTORE PUSH1 0x20 PUSH1 0x0 KECCAK256 SWAP1 JUMPDEST DUP2 SLOAD DUP2 MSTORE SWAP1 PUSH1 0x1 ADD SWAP1 PUSH1 0x20 ADD DUP1 DUP4 GT PUSH2 0xEBA JUMPI DUP3 SWAP1 SUB PUSH1 0x1F AND DUP3 ADD SWAP2 JUMPDEST POP POP POP POP POP SWAP1 DUP1 PUSH1 0x4 ADD SLOAD SWAP1 POP DUP6 JUMP JUMPDEST PUSH1 0x8 PUSH1 0x20 MSTORE DUP2 PUSH1 0x0 MSTORE PUSH1 0x40 PUSH1 0x0 KECCAK256 DUP2 DUP2 SLOAD DUP2 LT PUSH2 0xF03 JUMPI PUSH1 0x0 DUP1 REVERT JUMPDEST SWAP1 PUSH1 0x0 MSTORE PUSH1 0x20 PUSH1 0x0 KECCAK256 ADD PUSH1 0x0 SWAP2 POP SWAP2 POP POP SLOAD DUP2 JUMP JUMPDEST PUSH1 0x0 DUP2 DUP2 MSTORE PUSH1 0x6 PUSH1 0x20 SWAP1 DUP2 MSTORE PUSH1 0x40 SWAP2 DUP3 SWAP1 KECCAK256 DUP1 SLOAD DUP4 MLOAD DUP2 DUP5 MUL DUP2 ADD DUP5 ADD SWAP1 SWAP5 MSTORE DUP1 DUP5 MSTORE PUSH1 0x60 SWAP4 SWAP3 DUP4 ADD DUP3 DUP3 DUP1 ISZERO PUSH2 0xF6E JUMPI PUSH1 0x20 MUL DUP3 ADD SWAP2 SWAP1 PUSH1 0x0 MSTORE PUSH1 0x20 PUSH1 0x0 KECCAK256 SWAP1 JUMPDEST DUP2 SLOAD DUP2 MSTORE PUSH1 0x20 ADD SWAP1 PUSH1 0x1 ADD SWAP1 DUP1 DUP4 GT PUSH2 0xF5A JUMPI JUMPDEST POP POP POP POP POP SWAP1 POP SWAP2 SWAP1 POP JUMP JUMPDEST PUSH1 0x0 DUP2 DUP2 MSTORE PUSH1 0x8 PUSH1 0x20 SWAP1 DUP2 MSTORE PUSH1 0x40 SWAP2 DUP3 SWAP1 KECCAK256 DUP1 SLOAD DUP4 MLOAD DUP2 DUP5 MUL DUP2 ADD DUP5 ADD SWAP1 SWAP5 MSTORE DUP1 DUP5 MSTORE PUSH1 0x60 SWAP4 SWAP3 DUP4 ADD DUP3 DUP3 DUP1 ISZERO PUSH2 0xF6E JUMPI PUSH1 0x20 MUL DUP3 ADD SWAP2 SWAP1 PUSH1 0x0 MSTORE PUSH1 0x20 PUSH1 0x0 KECCAK256 SWAP1 DUP2 SLOAD DUP2 MSTORE PUSH1 0x20 ADD SWAP1 PUSH1 0x1 ADD SWAP1 DUP1 DUP4 GT PUSH2 0xF5A JUMPI POP POP POP POP POP SWAP1 POP SWAP2 SWAP1 POP JUMP JUMPDEST PUSH1 0x0 PUSH2 0xFE5 DUP2 PUSH2 0x1897 JUMP JUMPDEST PUSH2 0xD92 PUSH2 0x1B9C JUMP JUMPDEST PUSH32 0x48404EC5122CFEF2C4B0B727FA211CFB1E815E1B19D5C56F7D3CC0C616120A28 PUSH2 0x1017 DUP2 PUSH2 0x1897 JUMP JUMPDEST PUSH2 0x101F PUSH2 0x18A1 JUMP JUMPDEST CALLER PUSH1 0x0 SWAP1 DUP2 MSTORE PUSH1 0x9 PUSH1 0x20 MSTORE PUSH1 0x40 SWAP1 KECCAK256 SLOAD PUSH2 0x103B SWAP1 PUSH1 0x3C SWAP1 PUSH2 0x206E JUMP JUMPDEST TIMESTAMP LT ISZERO PUSH2 0x1083 JUMPI PUSH1 0x40 MLOAD PUSH3 0x461BCD PUSH1 0xE5 SHL DUP2 MSTORE PUSH1 0x20 PUSH1 0x4 DUP3 ADD MSTORE PUSH1 0x16 PUSH1 0x24 DUP3 ADD MSTORE PUSH22 0x436F6F6C646F776E20706572696F6420616374697665 PUSH1 0x50 SHL PUSH1 0x44 DUP3 ADD MSTORE PUSH1 0x64 ADD PUSH2 0x636 JUMP JUMPDEST CALLER PUSH1 0x0 SWAP1 DUP2 MSTORE PUSH1 0x9 PUSH1 0x20 MSTORE PUSH1 0x40 SWAP1 KECCAK256 TIMESTAMP SWAP1 SSTORE PUSH2 0x3E8 PUSH2 0xFFFF DUP5 AND GT DUP1 PUSH2 0x10AE JUMPI POP PUSH2 0x3E8 DUP3 PUSH2 0xFFFF AND GT JUMPDEST ISZERO PUSH2 0x10CC JUMPI PUSH1 0x40 MLOAD PUSH4 0x43E24F7 PUSH1 0xE5 SHL DUP2 MSTORE PUSH1 0x4 ADD PUSH1 0x40 MLOAD DUP1 SWAP2 SUB SWAP1 REVERT JUMPDEST PUSH1 0x40 DUP1 MLOAD TIMESTAMP PUSH1 0x20 DUP3 ADD MSTORE PUSH12 0xFFFFFFFFFFFFFFFFFFFFFFFF NOT CALLER PUSH1 0x60 SHL AND SWAP2 DUP2 ADD SWAP2 SWAP1 SWAP2 MSTORE PUSH1 0x54 DUP2 ADD DUP7 SWAP1 MSTORE PUSH1 0xF0 DUP6 DUP2 SHL PUSH1 0x74 DUP4 ADD MSTORE PUSH1 0x1 PUSH1 0x1 PUSH1 0xF0 SHL SUB NOT DUP6 DUP3 SHL DUP2 AND PUSH1 0x76 DUP5 ADD MSTORE SWAP1 DUP5 SWAP1 SHL AND PUSH1 0x78 DUP3 ADD MSTORE PUSH1 0x0 SWAP1 PUSH1 0x7A ADD PUSH1 0x40 DUP1 MLOAD PUSH1 0x1F NOT DUP2 DUP5 SUB ADD DUP2 MSTORE SWAP2 DUP2 MSTORE DUP2 MLOAD PUSH1 0x20 SWAP3 DUP4 ADD KECCAK256 PUSH1 0x0 DUP2 DUP2 MSTORE PUSH1 0x5 SWAP1 SWAP4 MSTORE SWAP2 KECCAK256 SLOAD SWAP1 SWAP2 POP PUSH1 0xFF AND ISZERO PUSH2 0x116D JUMPI PUSH1 0x40 MLOAD PUSH4 0x2CA15F09 PUSH1 0xE0 SHL DUP2 MSTORE PUSH1 0x4 ADD PUSH1 0x40 MLOAD DUP1 SWAP2 SUB SWAP1 REVERT JUMPDEST PUSH1 0x1 PUSH1 0x5 PUSH1 0x0 DUP4 DUP2 MSTORE PUSH1 0x20 ADD SWAP1 DUP2 MSTORE PUSH1 0x20 ADD PUSH1 0x0 KECCAK256 PUSH1 0x0 PUSH2 0x100 EXP DUP2 SLOAD DUP2 PUSH1 0xFF MUL NOT AND SWAP1 DUP4 ISZERO ISZERO MUL OR SWAP1 SSTORE POP PUSH1 0x0 PUSH1 0x2 DUP1 SLOAD SWAP1 POP SWAP1 POP PUSH1 0x2 PUSH1 0x40 MLOAD DUP1 PUSH1 0xE0 ADD PUSH1 0x40 MSTORE DUP1 TIMESTAMP DUP2 MSTORE PUSH1 0x20 ADD CALLER PUSH1 0x1 PUSH1 0x1 PUSH1 0xA0 SHL SUB AND DUP2 MSTORE PUSH1 0x20 ADD DUP10 DUP2 MSTORE PUSH1 0x20 ADD DUP9 PUSH1 0x1 SIGNEXTEND DUP2 MSTORE PUSH1 0x20 ADD DUP8 PUSH2 0xFFFF AND DUP2 MSTORE PUSH1 0x20 ADD DUP7 PUSH2 0xFFFF AND DUP2 MSTORE PUSH1 0x20 ADD DUP5 DUP2 MSTORE POP SWAP1 DUP1 PUSH1 0x1 DUP2 SLOAD ADD DUP1 DUP3 SSTORE DUP1 SWAP2 POP POP PUSH1 0x1 SWAP1 SUB SWAP1 PUSH1 0x0 MSTORE PUSH1 0x20 PUSH1 0x0 KECCAK256 SWAP1 PUSH1 0x5 MUL ADD PUSH1 0x0 SWAP1 SWAP2 SWAP1 SWAP2 SWAP1 SWAP2 POP PUSH1 0x0 DUP3 ADD MLOAD DUP2 PUSH1 0x0 ADD SSTORE PUSH1 0x20 DUP3 ADD MLOAD DUP2 PUSH1 0x1 ADD PUSH1 0x0 PUSH2 0x100 EXP DUP2 SLOAD DUP2 PUSH1 0x1 PUSH1 0x1 PUSH1 0xA0 SHL SUB MUL NOT AND SWAP1 DUP4 PUSH1 0x1 PUSH1 0x1 PUSH1 0xA0 SHL SUB AND MUL OR SWAP1 SSTORE POP PUSH1 0x40 DUP3 ADD MLOAD DUP2 PUSH1 0x2 ADD SSTORE PUSH1 0x60 DUP3 ADD MLOAD DUP2 PUSH1 0x3 ADD PUSH1 0x0 PUSH2 0x100 EXP DUP2 SLOAD DUP2 PUSH2 0xFFFF MUL NOT AND SWAP1 DUP4 PUSH1 0x1 SIGNEXTEND PUSH2 0xFFFF AND MUL OR SWAP1 SSTORE POP PUSH1 0x80 DUP3 ADD MLOAD DUP2 PUSH1 0x3 ADD PUSH1 0x2 PUSH2 0x100 EXP DUP2 SLOAD DUP2 PUSH2 0xFFFF MUL NOT AND SWAP1 DUP4 PUSH2 0xFFFF AND MUL OR SWAP1 SSTORE POP PUSH1 0xA0 DUP3 ADD MLOAD DUP2 PUSH1 0x3 ADD PUSH1 0x4 PUSH2 0x100 EXP DUP2 SLOAD DUP2 PUSH2 0xFFFF MUL NOT AND SWAP1 DUP4 PUSH2 0xFFFF AND MUL OR SWAP1 SSTORE POP PUSH1 0xC0 DUP3 ADD MLOAD DUP2 PUSH1 0x4 ADD SSTORE POP POP PUSH1 0x6 PUSH1 0x0 DUP9 DUP2 MSTORE PUSH1 0x20 ADD SWAP1 DUP2 MSTORE PUSH1 0x20 ADD PUSH1 0x0 KECCAK256 DUP2 SWAP1 DUP1 PUSH1 0x1 DUP2 SLOAD ADD DUP1 DUP3 SSTORE DUP1 SWAP2 POP POP PUSH1 0x1 SWAP1 SUB SWAP1 PUSH1 0x0 MSTORE PUSH1 0x20 PUSH1 0x0 KECCAK256 ADD PUSH1 0x0 SWAP1 SWAP2 SWAP1 SWAP2 SWAP1 SWAP2 POP SSTORE DUP7 CALLER PUSH1 0x1 PUSH1 0x1 PUSH1 0xA0 SHL SUB AND DUP3 PUSH32 0xD1FFBC628AB31D410540A5216A77617B6437DD8315E6D6EB848DC25B4825E400 TIMESTAMP PUSH1 0x40 MLOAD PUSH2 0x1345 SWAP2 DUP2 MSTORE PUSH1 0x20 ADD SWAP1 JUMP JUMPDEST PUSH1 0x40 MLOAD DUP1 SWAP2 SUB SWAP1 LOG4 PUSH2 0x1359 DUP2 DUP8 DUP8 DUP8 PUSH2 0x18C7 JUMP JUMPDEST POP POP POP POP POP POP POP JUMP JUMPDEST PUSH32 0x9FDD832C63A06CFF8EDEFFF7231D8026FD177377608DB1841F7C881716EA19BC PUSH2 0x138C DUP2 PUSH2 0x1897 JUMP JUMPDEST PUSH2 0x1394 PUSH2 0x18A1 JUMP JUMPDEST PUSH1 0x0 PUSH1 0x4 DUP1 SLOAD SWAP1 POP SWAP1 POP PUSH1 0x4 PUSH1 0x40 MLOAD DUP1 PUSH1 0xC0 ADD PUSH1 0x40 MSTORE DUP1 DUP11 DUP2 MSTORE PUSH1 0x20 ADD DUP10 DUP10 DUP1 DUP1 PUSH1 0x1F ADD PUSH1 0x20 DUP1 SWAP2 DIV MUL PUSH1 0x20 ADD PUSH1 0x40 MLOAD SWAP1 DUP2 ADD PUSH1 0x40 MSTORE DUP1 SWAP4 SWAP3 SWAP2 SWAP1 DUP2 DUP2 MSTORE PUSH1 0x20 ADD DUP4 DUP4 DUP1 DUP3 DUP5 CALLDATACOPY PUSH1 0x0 SWAP3 ADD SWAP2 SWAP1 SWAP2 MSTORE POP POP POP SWAP1 DUP3 MSTORE POP TIMESTAMP PUSH1 0x20 DUP1 DUP4 ADD SWAP2 SWAP1 SWAP2 MSTORE CALLER PUSH1 0x40 DUP1 DUP5 ADD SWAP2 SWAP1 SWAP2 MSTORE DUP1 MLOAD PUSH1 0x1F DUP11 ADD DUP4 SWAP1 DIV DUP4 MUL DUP2 ADD DUP4 ADD SWAP1 SWAP2 MSTORE DUP9 DUP2 MSTORE PUSH1 0x60 SWAP1 SWAP3 ADD SWAP2 SWAP1 DUP10 SWAP1 DUP10 SWAP1 DUP2 SWAP1 DUP5 ADD DUP4 DUP3 DUP1 DUP3 DUP5 CALLDATACOPY PUSH1 0x0 SWAP3 ADD DUP3 SWAP1 MSTORE POP SWAP4 DUP6 MSTORE POP POP POP PUSH1 0x20 SWAP2 DUP3 ADD DUP8 SWAP1 MSTORE DUP4 SLOAD PUSH1 0x1 DUP2 DUP2 ADD DUP7 SSTORE SWAP5 DUP3 MSTORE SWAP1 DUP3 SWAP1 KECCAK256 DUP4 MLOAD PUSH1 0x6 SWAP1 SWAP3 MUL ADD SWAP1 DUP2 SSTORE SWAP1 DUP3 ADD MLOAD SWAP2 SWAP3 SWAP1 SWAP2 SWAP1 DUP3 ADD SWAP1 PUSH2 0x146F SWAP1 DUP3 PUSH2 0x2179 JUMP JUMPDEST POP PUSH1 0x40 DUP3 ADD MLOAD PUSH1 0x2 DUP3 ADD SSTORE PUSH1 0x60 DUP3 ADD MLOAD PUSH1 0x3 DUP3 ADD DUP1 SLOAD PUSH1 0x1 PUSH1 0x1 PUSH1 0xA0 SHL SUB NOT AND PUSH1 0x1 PUSH1 0x1 PUSH1 0xA0 SHL SUB SWAP1 SWAP3 AND SWAP2 SWAP1 SWAP2 OR SWAP1 SSTORE PUSH1 0x80 DUP3 ADD MLOAD PUSH1 0x4 DUP3 ADD SWAP1 PUSH2 0x14B4 SWAP1 DUP3 PUSH2 0x2179 JUMP JUMPDEST POP PUSH1 0xA0 SWAP2 SWAP1 SWAP2 ADD MLOAD PUSH1 0x5 SWAP1 SWAP2 ADD SSTORE PUSH1 0x0 DUP9 DUP2 MSTORE PUSH1 0x8 PUSH1 0x20 SWAP1 DUP2 MSTORE PUSH1 0x40 DUP1 DUP4 KECCAK256 DUP1 SLOAD PUSH1 0x1 DUP2 ADD DUP3 SSTORE SWAP1 DUP5 MSTORE SWAP2 SWAP1 SWAP3 KECCAK256 ADD DUP3 SWAP1 SSTORE MLOAD DUP9 SWAP1 DUP3 SWAP1 PUSH32 0x458336FD7C5948D16AE76CE225C87F858BD744B40D82DDC8272ED4EADECA6515 SWAP1 PUSH2 0xD0A SWAP1 DUP12 SWAP1 DUP12 SWAP1 TIMESTAMP SWAP1 PUSH2 0x2239 JUMP JUMPDEST PUSH1 0x0 SWAP2 DUP3 MSTORE PUSH1 0x20 DUP3 DUP2 MSTORE PUSH1 0x40 DUP1 DUP5 KECCAK256 PUSH1 0x1 PUSH1 0x1 PUSH1 0xA0 SHL SUB SWAP4 SWAP1 SWAP4 AND DUP5 MSTORE SWAP2 SWAP1 MSTORE SWAP1 KECCAK256 SLOAD PUSH1 0xFF AND SWAP1 JUMP JUMPDEST PUSH1 0x0 DUP2 DUP2 MSTORE PUSH1 0x7 PUSH1 0x20 SWAP1 DUP2 MSTORE PUSH1 0x40 SWAP2 DUP3 SWAP1 KECCAK256 DUP1 SLOAD DUP4 MLOAD DUP2 DUP5 MUL DUP2 ADD DUP5 ADD SWAP1 SWAP5 MSTORE DUP1 DUP5 MSTORE PUSH1 0x60 SWAP4 SWAP3 DUP4 ADD DUP3 DUP3 DUP1 ISZERO PUSH2 0xF6E JUMPI PUSH1 0x20 MUL DUP3 ADD SWAP2 SWAP1 PUSH1 0x0 MSTORE PUSH1 0x20 PUSH1 0x0 KECCAK256 SWAP1 DUP2 SLOAD DUP2 MSTORE PUSH1 0x20 ADD SWAP1 PUSH1 0x1 ADD SWAP1 DUP1 DUP4 GT PUSH2 0xF5A JUMPI POP POP POP POP POP SWAP1 POP SWAP2 SWAP1 POP JUMP JUMPDEST PUSH1 0x2 SLOAD PUSH1 0x0 SWAP1 DUP2 SWAP1 DUP4 LT PUSH2 0x15CC JUMPI PUSH1 0x40 MLOAD PUSH4 0x447875BF PUSH1 0xE1 SHL DUP2 MSTORE PUSH1 0x4 ADD PUSH1 0x40 MLOAD DUP1 SWAP2 SUB SWAP1 REVERT JUMPDEST PUSH1 0x0 PUSH1 0x2 DUP5 DUP2 SLOAD DUP2 LT PUSH2 0x15E1 JUMPI PUSH2 0x15E1 PUSH2 0x208F JUMP JUMPDEST PUSH1 0x0 SWAP2 DUP3 MSTORE PUSH1 0x20 DUP1 DUP4 KECCAK256 PUSH1 0x40 DUP1 MLOAD PUSH1 0xE0 DUP2 ADD DUP3 MSTORE PUSH1 0x5 SWAP5 DUP6 MUL SWAP1 SWAP3 ADD DUP1 SLOAD DUP4 MSTORE PUSH1 0x1 DUP1 DUP3 ADD SLOAD PUSH1 0x1 PUSH1 0x1 PUSH1 0xA0 SHL SUB AND DUP5 DUP7 ADD MSTORE PUSH1 0x2 DUP3 ADD SLOAD DUP5 DUP5 ADD MSTORE PUSH1 0x3 DUP3 ADD SLOAD SWAP1 DUP2 SWAP1 SIGNEXTEND PUSH1 0x60 DUP6 ADD MSTORE PUSH2 0xFFFF PUSH3 0x10000 DUP3 DIV DUP2 AND PUSH1 0x80 DUP7 ADD MSTORE PUSH5 0x100000000 SWAP1 SWAP2 DIV AND PUSH1 0xA0 DUP5 ADD MSTORE PUSH1 0x4 ADD SLOAD PUSH1 0xC0 SWAP1 SWAP3 ADD DUP3 SWAP1 MSTORE DUP2 DUP6 MSTORE SWAP3 SWAP1 SWAP2 MSTORE SWAP2 KECCAK256 SLOAD PUSH1 0xFF AND SWAP6 SWAP1 SWAP5 POP SWAP3 POP POP POP JUMP JUMPDEST PUSH1 0x0 DUP3 DUP2 MSTORE PUSH1 0x20 DUP2 SWAP1 MSTORE PUSH1 0x40 SWAP1 KECCAK256 PUSH1 0x1 ADD SLOAD PUSH2 0x1688 DUP2 PUSH2 0x1897 JUMP JUMPDEST PUSH2 0xD41 DUP4 DUP4 PUSH2 0x1ADF JUMP JUMPDEST PUSH1 0x2 DUP2 DUP2 SLOAD DUP2 LT PUSH2 0x16A2 JUMPI PUSH1 0x0 DUP1 REVERT JUMPDEST PUSH1 0x0 SWAP2 DUP3 MSTORE PUSH1 0x20 SWAP1 SWAP2 KECCAK256 PUSH1 0x5 SWAP1 SWAP2 MUL ADD DUP1 SLOAD PUSH1 0x1 DUP1 DUP4 ADD SLOAD PUSH1 0x2 DUP5 ADD SLOAD PUSH1 0x3 DUP6 ADD SLOAD PUSH1 0x4 SWAP1 SWAP6 ADD SLOAD SWAP4 SWAP6 POP PUSH1 0x1 PUSH1 0x1 PUSH1 0xA0 SHL SUB SWAP1 SWAP2 AND SWAP4 SWAP1 SWAP3 SWAP2 DUP2 SWAP1 SIGNEXTEND SWAP2 PUSH2 0xFFFF PUSH3 0x10000 DUP4 DIV DUP2 AND SWAP3 PUSH5 0x100000000 SWAP1 DIV AND SWAP1 DUP8 JUMP JUMPDEST PUSH1 0x4 DUP2 DUP2 SLOAD DUP2 LT PUSH2 0x1709 JUMPI PUSH1 0x0 DUP1 REVERT JUMPDEST PUSH1 0x0 SWAP2 DUP3 MSTORE PUSH1 0x20 SWAP1 SWAP2 KECCAK256 PUSH1 0x6 SWAP1 SWAP2 MUL ADD DUP1 SLOAD PUSH1 0x1 DUP3 ADD DUP1 SLOAD SWAP2 SWAP4 POP SWAP1 PUSH2 0x172E SWAP1 PUSH2 0x20F1 JUMP JUMPDEST DUP1 PUSH1 0x1F ADD PUSH1 0x20 DUP1 SWAP2 DIV MUL PUSH1 0x20 ADD PUSH1 0x40 MLOAD SWAP1 DUP2 ADD PUSH1 0x40 MSTORE DUP1 SWAP3 SWAP2 SWAP1 DUP2 DUP2 MSTORE PUSH1 0x20 ADD DUP3 DUP1 SLOAD PUSH2 0x175A SWAP1 PUSH2 0x20F1 JUMP JUMPDEST DUP1 ISZERO PUSH2 0x17A7 JUMPI DUP1 PUSH1 0x1F LT PUSH2 0x177C JUMPI PUSH2 0x100 DUP1 DUP4 SLOAD DIV MUL DUP4 MSTORE SWAP2 PUSH1 0x20 ADD SWAP2 PUSH2 0x17A7 JUMP JUMPDEST DUP3 ADD SWAP2 SWAP1 PUSH1 0x0 MSTORE PUSH1 0x20 PUSH1 0x0 KECCAK256 SWAP1 JUMPDEST DUP2 SLOAD DUP2 MSTORE SWAP1 PUSH1 0x1 ADD SWAP1 PUSH1 0x20 ADD DUP1 DUP4 GT PUSH2 0x178A JUMPI DUP3 SWAP1 SUB PUSH1 0x1F AND DUP3 ADD SWAP2 JUMPDEST POP POP POP POP PUSH1 0x2 DUP4 ADD SLOAD PUSH1 0x3 DUP5 ADD SLOAD PUSH1 0x4 DUP6 ADD DUP1 SLOAD SWAP5 SWAP6 SWAP3 SWAP5 PUSH1 0x1 PUSH1 0x1 PUSH1 0xA0 SHL SUB SWAP1 SWAP3 AND SWAP4 POP SWAP1 PUSH2 0x17D6 SWAP1 PUSH2 0x20F1 JUMP JUMPDEST DUP1 PUSH1 0x1F ADD PUSH1 0x20 DUP1 SWAP2 DIV MUL PUSH1 0x20 ADD PUSH1 0x40 MLOAD SWAP1 DUP2 ADD PUSH1 0x40 MSTORE DUP1 SWAP3 SWAP2 SWAP1 DUP2 DUP2 MSTORE PUSH1 0x20 ADD DUP3 DUP1 SLOAD PUSH2 0x1802 SWAP1 PUSH2 0x20F1 JUMP JUMPDEST DUP1 ISZERO PUSH2 0x184F JUMPI DUP1 PUSH1 0x1F LT PUSH2 0x1824 JUMPI PUSH2 0x100 DUP1 DUP4 SLOAD DIV MUL DUP4 MSTORE SWAP2 PUSH1 0x20 ADD SWAP2 PUSH2 0x184F JUMP JUMPDEST DUP3 ADD SWAP2 SWAP1 PUSH1 0x0 MSTORE PUSH1 0x20 PUSH1 0x0 KECCAK256 SWAP1 JUMPDEST DUP2 SLOAD DUP2 MSTORE SWAP1 PUSH1 0x1 ADD SWAP1 PUSH1 0x20 ADD DUP1 DUP4 GT PUSH2 0x1832 JUMPI DUP3 SWAP1 SUB PUSH1 0x1F AND DUP3 ADD SWAP2 JUMPDEST POP POP POP POP POP SWAP1 DUP1 PUSH1 0x5 ADD SLOAD SWAP1 POP DUP7 JUMP JUMPDEST PUSH1 0x6 PUSH1 0x20 MSTORE DUP2 PUSH1 0x0 MSTORE PUSH1 0x40 PUSH1 0x0 KECCAK256 DUP2 DUP2 SLOAD DUP2 LT PUSH2 0xF03 JUMPI PUSH1 0x0 DUP1 REVERT JUMPDEST PUSH1 0x7 PUSH1 0x20 MSTORE DUP2 PUSH1 0x0 MSTORE PUSH1 0x40 PUSH1 0x0 KECCAK256 DUP2 DUP2 SLOAD DUP2 LT PUSH2 0xF03 JUMPI PUSH1 0x0 DUP1 REVERT JUMPDEST PUSH2 0xD92 DUP2 CALLER PUSH2 0x1BD7 JUMP JUMPDEST PUSH1 0x1 SLOAD PUSH1 0xFF AND ISZERO PUSH2 0x18C5 JUMPI PUSH1 0x40 MLOAD PUSH4 0xD93C0665 PUSH1 0xE0 SHL DUP2 MSTORE PUSH1 0x4 ADD PUSH1 0x40 MLOAD DUP1 SWAP2 SUB SWAP1 REVERT JUMPDEST JUMP JUMPDEST PUSH1 0x63 NOT DUP4 PUSH1 0x1 SIGNEXTEND SLT DUP1 PUSH2 0x18DE JUMPI POP PUSH2 0x258 DUP4 PUSH1 0x1 SIGNEXTEND SGT JUMPDEST ISZERO PUSH2 0x194C JUMPI CALLER PUSH1 0x1 PUSH1 0x1 PUSH1 0xA0 SHL SUB AND DUP5 PUSH32 0x95E8BE25CE99D5E12CAC2015EE3DF3941FE93667BC5BB68C81B82A3F7EE9ED74 PUSH1 0x40 MLOAD PUSH2 0x1943 SWAP1 PUSH1 0x20 DUP1 DUP3 MSTORE PUSH1 0x13 SWAP1 DUP3 ADD MSTORE PUSH19 0x45585452454D455F54454D5045524154555245 PUSH1 0x68 SHL PUSH1 0x40 DUP3 ADD MSTORE PUSH1 0x60 ADD SWAP1 JUMP JUMPDEST PUSH1 0x40 MLOAD DUP1 SWAP2 SUB SWAP1 LOG3 JUMPDEST PUSH1 0x32 DUP3 PUSH2 0xFFFF AND LT DUP1 PUSH2 0x1964 JUMPI POP PUSH2 0x3B6 DUP3 PUSH2 0xFFFF AND GT JUMPDEST ISZERO PUSH2 0x19D4 JUMPI CALLER PUSH1 0x1 PUSH1 0x1 PUSH1 0xA0 SHL SUB AND DUP5 PUSH32 0x95E8BE25CE99D5E12CAC2015EE3DF3941FE93667BC5BB68C81B82A3F7EE9ED74 PUSH1 0x40 MLOAD PUSH2 0x19CB SWAP1 PUSH1 0x20 DUP1 DUP3 MSTORE PUSH1 0x15 SWAP1 DUP3 ADD MSTORE PUSH21 0x45585452454D455F534F494C5F4D4F495354555245 PUSH1 0x58 SHL PUSH1 0x40 DUP3 ADD MSTORE PUSH1 0x60 ADD SWAP1 JUMP JUMPDEST PUSH1 0x40 MLOAD DUP1 SWAP2 SUB SWAP1 LOG3 JUMPDEST PUSH2 0x3B6 DUP2 PUSH2 0xFFFF AND GT ISZERO PUSH2 0xD41 JUMPI CALLER PUSH1 0x1 PUSH1 0x1 PUSH1 0xA0 SHL SUB AND DUP5 PUSH32 0x95E8BE25CE99D5E12CAC2015EE3DF3941FE93667BC5BB68C81B82A3F7EE9ED74 PUSH1 0x40 MLOAD PUSH2 0x1A3F SWAP1 PUSH1 0x20 DUP1 DUP3 MSTORE PUSH1 0x10 SWAP1 DUP3 ADD MSTORE PUSH16 0x45585452454D455F48554D4944495459 PUSH1 0x80 SHL PUSH1 0x40 DUP3 ADD MSTORE PUSH1 0x60 ADD SWAP1 JUMP JUMPDEST PUSH1 0x40 MLOAD DUP1 SWAP2 SUB SWAP1 LOG3 POP POP POP POP JUMP JUMPDEST PUSH1 0x0 PUSH2 0x1A59 DUP4 DUP4 PUSH2 0x151C JUMP JUMPDEST PUSH2 0x1AD7 JUMPI PUSH1 0x0 DUP4 DUP2 MSTORE PUSH1 0x20 DUP2 DUP2 MSTORE PUSH1 0x40 DUP1 DUP4 KECCAK256 PUSH1 0x1 PUSH1 0x1 PUSH1 0xA0 SHL SUB DUP7 AND DUP5 MSTORE SWAP1 SWAP2 MSTORE SWAP1 KECCAK256 DUP1 SLOAD PUSH1 0xFF NOT AND PUSH1 0x1 OR SWAP1 SSTORE PUSH2 0x1A8F CALLER SWAP1 JUMP JUMPDEST PUSH1 0x1 PUSH1 0x1 PUSH1 0xA0 SHL SUB AND DUP3 PUSH1 0x1 PUSH1 0x1 PUSH1 0xA0 SHL SUB AND DUP5 PUSH32 0x2F8788117E7EFF1D82E926EC794901D17C78024A50270940304540A733656F0D PUSH1 0x40 MLOAD PUSH1 0x40 MLOAD DUP1 SWAP2 SUB SWAP1 LOG4 POP PUSH1 0x1 PUSH2 0x5B0 JUMP JUMPDEST POP PUSH1 0x0 PUSH2 0x5B0 JUMP JUMPDEST PUSH1 0x0 PUSH2 0x1AEB DUP4 DUP4 PUSH2 0x151C JUMP JUMPDEST ISZERO PUSH2 0x1AD7 JUMPI PUSH1 0x0 DUP4 DUP2 MSTORE PUSH1 0x20 DUP2 DUP2 MSTORE PUSH1 0x40 DUP1 DUP4 KECCAK256 PUSH1 0x1 PUSH1 0x1 PUSH1 0xA0 SHL SUB DUP7 AND DUP1 DUP6 MSTORE SWAP3 MSTORE DUP1 DUP4 KECCAK256 DUP1 SLOAD PUSH1 0xFF NOT AND SWAP1 SSTORE MLOAD CALLER SWAP3 DUP7 SWAP2 PUSH32 0xF6391F5C32D9C69D2A47EA670B442974B53935D1EDC7FD64EB21E047A839171B SWAP2 SWAP1 LOG4 POP PUSH1 0x1 PUSH2 0x5B0 JUMP JUMPDEST PUSH2 0x1B52 PUSH2 0x1C14 JUMP JUMPDEST PUSH1 0x1 DUP1 SLOAD PUSH1 0xFF NOT AND SWAP1 SSTORE PUSH32 0x5DB9EE0A495BF2E6FF9C91A7834C1BA4FDD244A5E8AA4E537BD38AEAE4B073AA CALLER JUMPDEST PUSH1 0x40 MLOAD PUSH1 0x1 PUSH1 0x1 PUSH1 0xA0 SHL SUB SWAP1 SWAP2 AND DUP2 MSTORE PUSH1 0x20 ADD PUSH1 0x40 MLOAD DUP1 SWAP2 SUB SWAP1 LOG1 JUMP JUMPDEST PUSH2 0x1BA4 PUSH2 0x18A1 JUMP JUMPDEST PUSH1 0x1 DUP1 SLOAD PUSH1 0xFF NOT AND DUP2 OR SWAP1 SSTORE PUSH32 0x62E78CEA01BEE320CD4E420270B5EA74000D11B0C9F74754EBDBFC544B05A258 CALLER PUSH2 0x1B7F JUMP JUMPDEST PUSH2 0x1BE1 DUP3 DUP3 PUSH2 0x151C JUMP JUMPDEST PUSH2 0x1C10 JUMPI PUSH1 0x40 MLOAD PUSH4 0xE2517D3F PUSH1 0xE0 SHL DUP2 MSTORE PUSH1 0x1 PUSH1 0x1 PUSH1 0xA0 SHL SUB DUP3 AND PUSH1 0x4 DUP3 ADD MSTORE PUSH1 0x24 DUP2 ADD DUP4 SWAP1 MSTORE PUSH1 0x44 ADD PUSH2 0x636 JUMP JUMPDEST POP POP JUMP JUMPDEST PUSH1 0x1 SLOAD PUSH1 0xFF AND PUSH2 0x18C5 JUMPI PUSH1 0x40 MLOAD PUSH4 0x8DFC202B PUSH1 0xE0 SHL DUP2 MSTORE PUSH1 0x4 ADD PUSH1 0x40 MLOAD DUP1 SWAP2 SUB SWAP1 REVERT JUMPDEST PUSH1 0x0 PUSH1 0x20 DUP3 DUP5 SUB SLT ISZERO PUSH2 0x1C49 JUMPI PUSH1 0x0 DUP1 REVERT JUMPDEST DUP2 CALLDATALOAD PUSH1 0x1 PUSH1 0x1 PUSH1 0xE0 SHL SUB NOT DUP2 AND DUP2 EQ PUSH2 0x1C61 JUMPI PUSH1 0x0 DUP1 REVERT JUMPDEST SWAP4 SWAP3 POP POP POP JUMP JUMPDEST PUSH1 0x0 DUP1 DUP4 PUSH1 0x1F DUP5 ADD SLT PUSH2 0x1C7A JUMPI PUSH1 0x0 DUP1 REVERT JUMPDEST POP DUP2 CALLDATALOAD PUSH8 0xFFFFFFFFFFFFFFFF DUP2 GT ISZERO PUSH2 0x1C92 JUMPI PUSH1 0x0 DUP1 REVERT JUMPDEST PUSH1 0x20 DUP4 ADD SWAP2 POP DUP4 PUSH1 0x20 DUP3 PUSH1 0x5 SHL DUP6 ADD ADD GT ISZERO PUSH2 0x1CAD JUMPI PUSH1 0x0 DUP1 REVERT JUMPDEST SWAP3 POP SWAP3 SWAP1 POP JUMP JUMPDEST PUSH1 0x0 DUP1 PUSH1 0x0 DUP1 PUSH1 0x0 DUP1 PUSH1 0x0 DUP1 PUSH1 0x80 DUP10 DUP12 SUB SLT ISZERO PUSH2 0x1CD0 JUMPI PUSH1 0x0 DUP1 REVERT JUMPDEST DUP9 CALLDATALOAD PUSH8 0xFFFFFFFFFFFFFFFF DUP1 DUP3 GT ISZERO PUSH2 0x1CE8 JUMPI PUSH1 0x0 DUP1 REVERT JUMPDEST PUSH2 0x1CF4 DUP13 DUP4 DUP14 ADD PUSH2 0x1C68 JUMP JUMPDEST SWAP1 SWAP11 POP SWAP9 POP PUSH1 0x20 DUP12 ADD CALLDATALOAD SWAP2 POP DUP1 DUP3 GT ISZERO PUSH2 0x1D0D JUMPI PUSH1 0x0 DUP1 REVERT JUMPDEST PUSH2 0x1D19 DUP13 DUP4 DUP14 ADD PUSH2 0x1C68 JUMP JUMPDEST SWAP1 SWAP9 POP SWAP7 POP PUSH1 0x40 DUP12 ADD CALLDATALOAD SWAP2 POP DUP1 DUP3 GT ISZERO PUSH2 0x1D32 JUMPI PUSH1 0x0 DUP1 REVERT JUMPDEST PUSH2 0x1D3E DUP13 DUP4 DUP14 ADD PUSH2 0x1C68 JUMP JUMPDEST SWAP1 SWAP7 POP SWAP5 POP PUSH1 0x60 DUP12 ADD CALLDATALOAD SWAP2 POP DUP1 DUP3 GT ISZERO PUSH2 0x1D57 JUMPI PUSH1 0x0 DUP1 REVERT JUMPDEST POP PUSH2 0x1D64 DUP12 DUP3 DUP13 ADD PUSH2 0x1C68 JUMP JUMPDEST SWAP10 SWAP13 SWAP9 SWAP12 POP SWAP7 SWAP10 POP SWAP5 SWAP8 SWAP4 SWAP7 SWAP3 SWAP6 SWAP5 POP POP POP JUMP JUMPDEST PUSH1 0x0 DUP1 DUP4 PUSH1 0x1F DUP5 ADD SLT PUSH2 0x1D8A JUMPI PUSH1 0x0 DUP1 REVERT JUMPDEST POP DUP2 CALLDATALOAD PUSH8 0xFFFFFFFFFFFFFFFF DUP2 GT ISZERO PUSH2 0x1DA2 JUMPI PUSH1 0x0 DUP1 REVERT JUMPDEST PUSH1 0x20 DUP4 ADD SWAP2 POP DUP4 PUSH1 0x20 DUP3 DUP6 ADD ADD GT ISZERO PUSH2 0x1CAD JUMPI PUSH1 0x0 DUP1 REVERT JUMPDEST PUSH1 0x0 DUP1 PUSH1 0x0 DUP1 PUSH1 0x0 DUP1 PUSH1 0x80 DUP8 DUP10 SUB SLT ISZERO PUSH2 0x1DD3 JUMPI PUSH1 0x0 DUP1 REVERT JUMPDEST DUP7 CALLDATALOAD SWAP6 POP PUSH1 0x20 DUP8 ADD CALLDATALOAD PUSH8 0xFFFFFFFFFFFFFFFF DUP1 DUP3 GT ISZERO PUSH2 0x1DF2 JUMPI PUSH1 0x0 DUP1 REVERT JUMPDEST PUSH2 0x1DFE DUP11 DUP4 DUP12 ADD PUSH2 0x1D78 JUMP JUMPDEST SWAP1 SWAP8 POP SWAP6 POP PUSH1 0x40 DUP10 ADD CALLDATALOAD SWAP2 POP DUP1 DUP3 GT ISZERO PUSH2 0x1E17 JUMPI PUSH1 0x0 DUP1 REVERT JUMPDEST POP PUSH2 0x1E24 DUP10 DUP3 DUP11 ADD PUSH2 0x1D78 JUMP JUMPDEST SWAP8 SWAP11 SWAP7 SWAP10 POP SWAP5 SWAP8 SWAP5 SWAP7 SWAP6 PUSH1 0x60 SWAP1 SWAP6 ADD CALLDATALOAD SWAP5 SWAP4 POP POP POP POP JUMP JUMPDEST PUSH1 0x0 PUSH1 0x20 DUP3 DUP5 SUB SLT ISZERO PUSH2 0x1E4E JUMPI PUSH1 0x0 DUP1 REVERT JUMPDEST POP CALLDATALOAD SWAP2 SWAP1 POP JUMP JUMPDEST DUP1 CALLDATALOAD PUSH1 0x1 PUSH1 0x1 PUSH1 0xA0 SHL SUB DUP2 AND DUP2 EQ PUSH2 0x1E6C JUMPI PUSH1 0x0 DUP1 REVERT JUMPDEST SWAP2 SWAP1 POP JUMP JUMPDEST PUSH1 0x0 DUP1 PUSH1 0x40 DUP4 DUP6 SUB SLT ISZERO PUSH2 0x1E84 JUMPI PUSH1 0x0 DUP1 REVERT JUMPDEST DUP3 CALLDATALOAD SWAP2 POP PUSH2 0x1E94 PUSH1 0x20 DUP5 ADD PUSH2 0x1E55 JUMP JUMPDEST SWAP1 POP SWAP3 POP SWAP3 SWAP1 POP JUMP JUMPDEST PUSH1 0x0 DUP2 MLOAD DUP1 DUP5 MSTORE PUSH1 0x0 JUMPDEST DUP2 DUP2 LT ISZERO PUSH2 0x1EC3 JUMPI PUSH1 0x20 DUP2 DUP6 ADD DUP2 ADD MLOAD DUP7 DUP4 ADD DUP3 ADD MSTORE ADD PUSH2 0x1EA7 JUMP JUMPDEST POP PUSH1 0x0 PUSH1 0x20 DUP3 DUP7 ADD ADD MSTORE PUSH1 0x20 PUSH1 0x1F NOT PUSH1 0x1F DUP4 ADD AND DUP6 ADD ADD SWAP2 POP POP SWAP3 SWAP2 POP POP JUMP JUMPDEST DUP6 DUP2 MSTORE PUSH1 0xA0 PUSH1 0x20 DUP3 ADD MSTORE PUSH1 0x0 PUSH2 0x1EFC PUSH1 0xA0 DUP4 ADD DUP8 PUSH2 0x1E9D JUMP JUMPDEST DUP6 PUSH1 0x40 DUP5 ADD MSTORE DUP3 DUP2 SUB PUSH1 0x60 DUP5 ADD MSTORE PUSH2 0x1F14 DUP2 DUP7 PUSH2 0x1E9D JUMP JUMPDEST SWAP2 POP POP DUP3 PUSH1 0x80 DUP4 ADD MSTORE SWAP7 SWAP6 POP POP POP POP POP POP JUMP JUMPDEST PUSH1 0x0 DUP1 PUSH1 0x40 DUP4 DUP6 SUB SLT ISZERO PUSH2 0x1F3A JUMPI PUSH1 0x0 DUP1 REVERT JUMPDEST POP POP DUP1 CALLDATALOAD SWAP3 PUSH1 0x20 SWAP1 SWAP2 ADD CALLDATALOAD SWAP2 POP JUMP JUMPDEST PUSH1 0x20 DUP1 DUP3 MSTORE DUP3 MLOAD DUP3 DUP3 ADD DUP2 SWAP1 MSTORE PUSH1 0x0 SWAP2 SWAP1 DUP5 DUP3 ADD SWAP1 PUSH1 0x40 DUP6 ADD SWAP1 DUP5 JUMPDEST DUP2 DUP2 LT ISZERO PUSH2 0x1F81 JUMPI DUP4 MLOAD DUP4 MSTORE SWAP3 DUP5 ADD SWAP3 SWAP2 DUP5 ADD SWAP2 PUSH1 0x1 ADD PUSH2 0x1F65 JUMP JUMPDEST POP SWAP1 SWAP7 SWAP6 POP POP POP POP POP POP JUMP JUMPDEST DUP1 CALLDATALOAD PUSH1 0x1 DUP2 SWAP1 SIGNEXTEND DUP2 EQ PUSH2 0x1E6C JUMPI PUSH1 0x0 DUP1 REVERT JUMPDEST DUP1 CALLDATALOAD PUSH2 0xFFFF DUP2 AND DUP2 EQ PUSH2 0x1E6C JUMPI PUSH1 0x0 DUP1 REVERT JUMPDEST PUSH1 0x0 DUP1 PUSH1 0x0 DUP1 PUSH1 0x80 DUP6 DUP8 SUB SLT ISZERO PUSH2 0x1FC7 JUMPI PUSH1 0x0 DUP1 REVERT JUMPDEST DUP5 CALLDATALOAD SWAP4 POP PUSH2 0x1FD7 PUSH1 0x20 DUP7 ADD PUSH2 0x1F8D JUMP JUMPDEST SWAP3 POP PUSH2 0x1FE5 PUSH1 0x40 DUP7 ADD PUSH2 0x1F9F JUMP JUMPDEST SWAP2 POP PUSH2 0x1FF3 PUSH1 0x60 DUP7 ADD PUSH2 0x1F9F JUMP JUMPDEST SWAP1 POP SWAP3 SWAP6 SWAP2 SWAP5 POP SWAP3 POP JUMP JUMPDEST PUSH1 0x0 PUSH1 0x20 DUP3 DUP5 SUB SLT ISZERO PUSH2 0x2010 JUMPI PUSH1 0x0 DUP1 REVERT JUMPDEST PUSH2 0x1C61 DUP3 PUSH2 0x1E55 JUMP JUMPDEST DUP7 DUP2 MSTORE PUSH1 0xC0 PUSH1 0x20 DUP3 ADD MSTORE PUSH1 0x0 PUSH2 0x2032 PUSH1 0xC0 DUP4 ADD DUP9 PUSH2 0x1E9D JUMP JUMPDEST PUSH1 0x40 DUP4 ADD DUP8 SWAP1 MSTORE PUSH1 0x1 PUSH1 0x1 PUSH1 0xA0 SHL SUB DUP7 AND PUSH1 0x60 DUP5 ADD MSTORE DUP3 DUP2 SUB PUSH1 0x80 DUP5 ADD MSTORE PUSH2 0x205A DUP2 DUP7 PUSH2 0x1E9D JUMP JUMPDEST SWAP2 POP POP DUP3 PUSH1 0xA0 DUP4 ADD MSTORE SWAP8 SWAP7 POP POP POP POP POP POP POP JUMP JUMPDEST DUP1 DUP3 ADD DUP1 DUP3 GT ISZERO PUSH2 0x5B0 JUMPI PUSH4 0x4E487B71 PUSH1 0xE0 SHL PUSH1 0x0 MSTORE PUSH1 0x11 PUSH1 0x4 MSTORE PUSH1 0x24 PUSH1 0x0 REVERT JUMPDEST PUSH4 0x4E487B71 PUSH1 0xE0 SHL PUSH1 0x0 MSTORE PUSH1 0x32 PUSH1 0x4 MSTORE PUSH1 0x24 PUSH1 0x0 REVERT JUMPDEST PUSH1 0x0 PUSH1 0x20 DUP3 DUP5 SUB SLT ISZERO PUSH2 0x20B7 JUMPI PUSH1 0x0 DUP1 REVERT JUMPDEST PUSH2 0x1C61 DUP3 PUSH2 0x1F9F JUMP JUMPDEST PUSH1 0x0 PUSH1 0x20 DUP3 DUP5 SUB SLT ISZERO PUSH2 0x20D2 JUMPI PUSH1 0x0 DUP1 REVERT JUMPDEST PUSH2 0x1C61 DUP3 PUSH2 0x1F8D JUMP JUMPDEST PUSH4 0x4E487B71 PUSH1 0xE0 SHL PUSH1 0x0 MSTORE PUSH1 0x41 PUSH1 0x4 MSTORE PUSH1 0x24 PUSH1 0x0 REVERT JUMPDEST PUSH1 0x1 DUP2 DUP2 SHR SWAP1 DUP3 AND DUP1 PUSH2 0x2105 JUMPI PUSH1 0x7F DUP3 AND SWAP2 POP JUMPDEST PUSH1 0x20 DUP3 LT DUP2 SUB PUSH2 0x2125 JUMPI PUSH4 0x4E487B71 PUSH1 0xE0 SHL PUSH1 0x0 MSTORE PUSH1 0x22 PUSH1 0x4 MSTORE PUSH1 0x24 PUSH1 0x0 REVERT JUMPDEST POP SWAP2 SWAP1 POP JUMP JUMPDEST PUSH1 0x1F DUP3 GT ISZERO PUSH2 0xD7A JUMPI PUSH1 0x0 DUP2 DUP2 MSTORE PUSH1 0x20 DUP2 KECCAK256 PUSH1 0x1F DUP6 ADD PUSH1 0x5 SHR DUP2 ADD PUSH1 0x20 DUP7 LT ISZERO PUSH2 0x2152 JUMPI POP DUP1 JUMPDEST PUSH1 0x1F DUP6 ADD PUSH1 0x5 SHR DUP3 ADD SWAP2 POP JUMPDEST DUP2 DUP2 LT ISZERO PUSH2 0x2171 JUMPI DUP3 DUP2 SSTORE PUSH1 0x1 ADD PUSH2 0x215E JUMP JUMPDEST POP POP POP POP POP POP JUMP JUMPDEST DUP2 MLOAD PUSH8 0xFFFFFFFFFFFFFFFF DUP2 GT ISZERO PUSH2 0x2193 JUMPI PUSH2 0x2193 PUSH2 0x20DB JUMP JUMPDEST PUSH2 0x21A7 DUP2 PUSH2 0x21A1 DUP5 SLOAD PUSH2 0x20F1 JUMP JUMPDEST DUP5 PUSH2 0x212B JUMP JUMPDEST PUSH1 0x20 DUP1 PUSH1 0x1F DUP4 GT PUSH1 0x1 DUP2 EQ PUSH2 0x21DC JUMPI PUSH1 0x0 DUP5 ISZERO PUSH2 0x21C4 JUMPI POP DUP6 DUP4 ADD MLOAD JUMPDEST PUSH1 0x0 NOT PUSH1 0x3 DUP7 SWAP1 SHL SHR NOT AND PUSH1 0x1 DUP6 SWAP1 SHL OR DUP6 SSTORE PUSH2 0x2171 JUMP JUMPDEST PUSH1 0x0 DUP6 DUP2 MSTORE PUSH1 0x20 DUP2 KECCAK256 PUSH1 0x1F NOT DUP7 AND SWAP2 JUMPDEST DUP3 DUP2 LT ISZERO PUSH2 0x220B JUMPI DUP9 DUP7 ADD MLOAD DUP3 SSTORE SWAP5 DUP5 ADD SWAP5 PUSH1 0x1 SWAP1 SWAP2 ADD SWAP1 DUP5 ADD PUSH2 0x21EC JUMP JUMPDEST POP DUP6 DUP3 LT ISZERO PUSH2 0x2229 JUMPI DUP8 DUP6 ADD MLOAD PUSH1 0x0 NOT PUSH1 0x3 DUP9 SWAP1 SHL PUSH1 0xF8 AND SHR NOT AND DUP2 SSTORE JUMPDEST POP POP POP POP POP PUSH1 0x1 SWAP1 DUP2 SHL ADD SWAP1 SSTORE POP JUMP JUMPDEST PUSH1 0x40 DUP2 MSTORE DUP3 PUSH1 0x40 DUP3 ADD MSTORE DUP3 DUP5 PUSH1 0x60 DUP4 ADD CALLDATACOPY PUSH1 0x0 PUSH1 0x60 DUP5 DUP4 ADD ADD MSTORE PUSH1 0x0 PUSH1 0x60 PUSH1 0x1F NOT PUSH1 0x1F DUP7 ADD AND DUP4 ADD ADD SWAP1 POP DUP3 PUSH1 0x20 DUP4 ADD MSTORE SWAP5 SWAP4 POP POP POP POP JUMP INVALID LOG2 PUSH5 0x6970667358 0x22 SLT KECCAK256 SWAP4 0xE6 DUP9 0xCB PUSH30 0x1B583DB40FF89ED739E162D04FCE882D6F6AD85707234830AAE26964736F PUSH13 0x63430008140033000000000000 "},"methodIdentifiers":{"DEFAULT_ADMIN_ROLE()":"a217fddf","DEVICE_ROLE()":"b0e26d70","FARMER_ROLE()":"f3943970","MAX_BATCH_SIZE()":"cfdbf254","RESEARCHER_ROLE()":"50f2aab3","SUBMISSION_COOLDOWN()":"a0ec242a","SUPPLY_CHAIN_ROLE()":"f24cb034","cropEvents(uint256)":"4688f7db","dataHashes(bytes32)":"8ea768fe","farmToCropEvents(uint256,uint256)":"fda7503b","farmToReadings(uint256,uint256)":"faf1fba6","getCropEventsByFarm(uint256)":"a9bf7419","getReadingsByFarm(uint256)":"58cfe812","getRoleAdmin(bytes32)":"248a9ca3","getSupplyChainStages(uint256)":"72067fe9","getTotalCropEvents()":"8e07dd94","getTotalReadings()":"6ed71357","getTotalSupplyChainStages()":"776cce90","grantRole(bytes32,address)":"2f2ff15d","hasRole(bytes32,address)":"91d14854","lastSubmissionTime(address)":"a4365476","pause()":"8456cb59","paused()":"5c975abb","productToStages(uint256,uint256)":"56c70ed6","readings(uint256)":"d5da886d","recordCropEvent(uint256,string,string,bytes32)":"0faa74e5","recordSupplyChainStage(uint256,string,string,bytes32)":"88c36035","renounceRole(bytes32,address)":"36568abe","revokeRole(bytes32,address)":"d547741f","submitBatch(uint256[],int16[],uint16[],uint16[])":"0d8d976c","submitSensorData(uint256,int16,uint16,uint16)":"864b6485","supplyChainStages(uint256)":"f2410ef7","supportsInterface(bytes4)":"01ffc9a7","unpause()":"3f4ba83a","verifyReading(uint256)":"aaf10752"}}}}}