{
  "_format": "hh-sol-artifact-1",
  "contractName": "ReentrancyAttacker",
  "sourceName": "contracts/ReentrancyAttacker.sol",
  "abi": [
    {
      "inputs": [
        {
          "internalType": "address",
          "name": "_target",
          "type": "address"
        }
      ],
      "stateMutability": "nonpayable",
      "type": "constructor"
    },
    {
      "anonymous": false,
      "inputs": [
        {
          "indexed": false,
          "internalType": "uint256",
          "name": "count",
          "type": "uint256"
        }
      ],
      "name": "AttackAttempt",
      "type": "event"
    },
    {
      "stateMutability": "payable",
      "type": "fallback"
    },
    {
      "inputs": [],
      "name": "MAX_ATTACKS",
      "outputs": [
        {
          "internalType": "uint256",
          "name": "",
          "type": "uint256"
        }
      ],
      "stateMutability": "view",
      "type": "function"
    },
    {
      "inputs": [],
      "name": "attack",
      "outputs": [],
      "stateMutability": "nonpayable",
      "type": "function"
    },
    {
      "inputs": [],
      "name": "attackCount",
      "outputs": [
        {
          "internalType": "uint256",
          "name": "",
          "type": "uint256"
        }
      ],
      "stateMutability": "view",
      "type": "function"
    },
    {
      "inputs": [],
      "name": "owner",
      "outputs": [
        {
          "internalType": "address",
          "name": "",
          "type": "address"
        }
      ],
      "stateMutability": "view",
      "type": "function"
    },
    {
      "inputs": [],
      "name": "target",
      "outputs": [
        {
          "internalType": "contract ISecureAssetManager",
          "name": "",
          "type": "address"
        }
      ],
      "stateMutability": "view",
      "type": "function"
    },
    {
      "stateMutability": "payable",
      "type": "receive"
    }
  ],
  "bytecode": "0x608060405234801561001057600080fd5b5060405161055d38038061055d83398101604081905261002f9161005d565b600080546001600160a01b039092166001600160a01b0319928316179055600180549091163317905561008d565b60006020828403121561006f57600080fd5b81516001600160a01b038116811461008657600080fd5b9392505050565b6104c18061009c6000396000f3fe60806040526004361061004e5760003560e01c8063407c2821146101e85780638da5cb5b146102115780639e5faafc14610249578063b36303fe1461025e578063d4b8399214610273576101a2565b366101a2576002805490600061006383610422565b91905055507f2496e2dc115746cf9714d1bf354fad6f978bcc9ddeae18b73c6af7e03ef7e3d560025460405161009b91815260200190565b60405180910390a1600560025410156101a057600080546040516370a0823160e01b81523060048201526001600160a01b03909116906370a0823190602401602060405180830381865afa1580156100f7573d6000803e3d6000fd5b505050506040513d601f19601f8201168201806040525081019061011b9190610449565b9050801561019e5760005460015460405163a9059cbb60e01b81526001600160a01b0391821660048201526024810184905291169063a9059cbb906044016020604051808303816000875af1158015610178573d6000803e3d6000fd5b505050506040513d601f19601f8201168201806040525081019061019c9190610462565b505b505b005b60405162461bcd60e51b815260206004820152601660248201527511985b1b189858dac81b9bdd081cdd5c1c1bdc9d195960521b60448201526064015b60405180910390fd5b3480156101f457600080fd5b506101fe60025481565b6040519081526020015b60405180910390f35b34801561021d57600080fd5b50600154610231906001600160a01b031681565b6040516001600160a01b039091168152602001610208565b34801561025557600080fd5b506101a0610293565b34801561026a57600080fd5b506101fe600581565b34801561027f57600080fd5b50600054610231906001600160a01b031681565b6001546001600160a01b031633146102e55760405162461bcd60e51b81526020600482015260156024820152744f6e6c79206f776e65722063616e2061747461636b60581b60448201526064016101df565b600080546040516370a0823160e01b81523060048201526001600160a01b03909116906370a0823190602401602060405180830381865afa15801561032e573d6000803e3d6000fd5b505050506040513d601f19601f820116820180604052508101906103529190610449565b9050600081116103a45760405162461bcd60e51b815260206004820152601960248201527f4e6f2062616c616e636520746f2061747461636b20776974680000000000000060448201526064016101df565b600060028190555460405163a9059cbb60e01b8152306004820152602481018390526001600160a01b039091169063a9059cbb906044016020604051808303816000875af11580156103fa573d6000803e3d6000fd5b505050506040513d601f19601f8201168201806040525081019061041e9190610462565b5050565b60006001820161044257634e487b7160e01b600052601160045260246000fd5b5060010190565b60006020828403121561045b57600080fd5b5051919050565b60006020828403121561047457600080fd5b8151801515811461048457600080fd5b939250505056fea26469706673582212209010eb3a8b09106b5e33dfca30abee2a43e7d3731878cd2199246a4b534e68c964736f6c63430008140033",
  "linkReferences": {},
  "deployedLinkReferences": {}
}